{"abi":[{"type":"constructor","inputs":[{"name":"_vaultFactory","type":"address","internalType":"address"},{"name":"_leaderRegistry","type":"address","internalType":"address"},{"name":"_uniswapV3PositionManager","type":"address","internalType":"address"},{"name":"_aerodromeRouter","type":"address","internalType":"address"}],"stateMutability":"nonpayable"},{"type":"function","name":"LEADER_REGISTRY","inputs":[],"outputs":[{"name":"","type":"address","internalType":"contract TribeLeaderRegistry"}],"stateMutability":"view"},{"type":"function","name":"VAULT_FACTORY","inputs":[],"outputs":[{"name":"","type":"address","internalType":"contract TribeVaultFactory"}],"stateMutability":"view"},{"type":"function","name":"addLiquidityAerodrome","inputs":[{"name":"token0","type":"address","internalType":"address"},{"name":"token1","type":"address","internalType":"address"},{"name":"stable","type":"bool","internalType":"bool"},{"name":"amount0Desired","type":"uint256","internalType":"uint256"},{"name":"amount1Desired","type":"uint256","internalType":"uint256"},{"name":"amount0Min","type":"uint256","internalType":"uint256"},{"name":"amount1Min","type":"uint256","internalType":"uint256"}],"outputs":[{"name":"liquidity","type":"uint256","internalType":"uint256"}],"stateMutability":"nonpayable"},{"type":"function","name":"addLiquidityUniswapV3","inputs":[{"name":"token0","type":"address","internalType":"address"},{"name":"token1","type":"address","internalType":"address"},{"name":"fee","type":"uint24","internalType":"uint24"},{"name":"tickLower","type":"int24","internalType":"int24"},{"name":"tickUpper","type":"int24","internalType":"int24"},{"name":"amount0Desired","type":"uint256","internalType":"uint256"},{"name":"amount1Desired","type":"uint256","internalType":"uint256"},{"name":"amount0Min","type":"uint256","internalType":"uint256"},{"name":"amount1Min","type":"uint256","internalType":"uint256"}],"outputs":[{"name":"tokenId","type":"uint256","internalType":"uint256"},{"name":"liquidity","type":"uint128","internalType":"uint128"}],"stateMutability":"nonpayable"},{"type":"function","name":"aerodromeRouter","inputs":[],"outputs":[{"name":"","type":"address","internalType":"address"}],"stateMutability":"view"},{"type":"function","name":"closeUniswapV3PositionByPair","inputs":[{"name":"token0","type":"address","internalType":"address"},{"name":"token1","type":"address","internalType":"address"},{"name":"amount0Min","type":"uint256","internalType":"uint256"},{"name":"amount1Min","type":"uint256","internalType":"uint256"}],"outputs":[],"stateMutability":"nonpayable"},{"type":"function","name":"getLatestAction","inputs":[{"name":"leader","type":"address","internalType":"address"}],"outputs":[{"name":"","type":"tuple","internalType":"struct TribeLeaderTerminal.Action","components":[{"name":"actionType","type":"uint8","internalType":"enum TribeLeaderTerminal.ActionType"},{"name":"protocol","type":"address","internalType":"address"},{"name":"token0","type":"address","internalType":"address"},{"name":"token1","type":"address","internalType":"address"},{"name":"amount0","type":"uint256","internalType":"uint256"},{"name":"amount1","type":"uint256","internalType":"uint256"},{"name":"timestamp","type":"uint256","internalType":"uint256"},{"name":"gasUsed","type":"uint256","internalType":"uint256"}]}],"stateMutability":"view"},{"type":"function","name":"getLeaderActions","inputs":[{"name":"leader","type":"address","internalType":"address"}],"outputs":[{"name":"","type":"tuple[]","internalType":"struct TribeLeaderTerminal.Action[]","components":[{"name":"actionType","type":"uint8","internalType":"enum TribeLeaderTerminal.ActionType"},{"name":"protocol","type":"address","internalType":"address"},{"name":"token0","type":"address","internalType":"address"},{"name":"token1","type":"address","internalType":"address"},{"name":"amount0","type":"uint256","internalType":"uint256"},{"name":"amount1","type":"uint256","internalType":"uint256"},{"name":"timestamp","type":"uint256","internalType":"uint256"},{"name":"gasUsed","type":"uint256","internalType":"uint256"}]}],"stateMutability":"view"},{"type":"function","name":"getTotalGasUsed","inputs":[{"name":"leader","type":"address","internalType":"address"}],"outputs":[{"name":"totalGas","type":"uint256","internalType":"uint256"}],"stateMutability":"view"},{"type":"function","name":"harvestFees","inputs":[{"name":"protocol","type":"address","internalType":"address"},{"name":"","type":"uint256","internalType":"uint256"}],"outputs":[{"name":"fees0","type":"uint256","internalType":"uint256"},{"name":"fees1","type":"uint256","internalType":"uint256"}],"stateMutability":"nonpayable"},{"type":"function","name":"leaderActions","inputs":[{"name":"","type":"address","internalType":"address"},{"name":"","type":"uint256","internalType":"uint256"}],"outputs":[{"name":"actionType","type":"uint8","internalType":"enum TribeLeaderTerminal.ActionType"},{"name":"protocol","type":"address","internalType":"address"},{"name":"token0","type":"address","internalType":"address"},{"name":"token1","type":"address","internalType":"address"},{"name":"amount0","type":"uint256","internalType":"uint256"},{"name":"amount1","type":"uint256","internalType":"uint256"},{"name":"timestamp","type":"uint256","internalType":"uint256"},{"name":"gasUsed","type":"uint256","internalType":"uint256"}],"stateMutability":"view"},{"type":"function","name":"owner","inputs":[],"outputs":[{"name":"","type":"address","internalType":"address"}],"stateMutability":"view"},{"type":"function","name":"rebalanceUniswapV3","inputs":[{"name":"oldTokenId","type":"uint256","internalType":"uint256"},{"name":"newTickLower","type":"int24","internalType":"int24"},{"name":"newTickUpper","type":"int24","internalType":"int24"},{"name":"amount0Desired","type":"uint256","internalType":"uint256"},{"name":"amount1Desired","type":"uint256","internalType":"uint256"}],"outputs":[{"name":"newTokenId","type":"uint256","internalType":"uint256"},{"name":"newLiquidity","type":"uint128","internalType":"uint128"}],"stateMutability":"nonpayable"},{"type":"function","name":"removeLiquidityAerodrome","inputs":[{"name":"token0","type":"address","internalType":"address"},{"name":"token1","type":"address","internalType":"address"},{"name":"","type":"bool","internalType":"bool"},{"name":"","type":"uint256","internalType":"uint256"},{"name":"","type":"uint256","internalType":"uint256"},{"name":"","type":"uint256","internalType":"uint256"}],"outputs":[{"name":"amount0","type":"uint256","internalType":"uint256"},{"name":"amount1","type":"uint256","internalType":"uint256"}],"stateMutability":"nonpayable"},{"type":"function","name":"removeLiquidityUniswapV3","inputs":[{"name":"tokenId","type":"uint256","internalType":"uint256"},{"name":"","type":"uint128","internalType":"uint128"},{"name":"","type":"uint256","internalType":"uint256"},{"name":"","type":"uint256","internalType":"uint256"}],"outputs":[{"name":"amount0","type":"uint256","internalType":"uint256"},{"name":"amount1","type":"uint256","internalType":"uint256"}],"stateMutability":"nonpayable"},{"type":"function","name":"renounceOwnership","inputs":[],"outputs":[],"stateMutability":"nonpayable"},{"type":"function","name":"swapTokens","inputs":[{"name":"protocol","type":"address","internalType":"address"},{"name":"tokenIn","type":"address","internalType":"address"},{"name":"tokenOut","type":"address","internalType":"address"},{"name":"amountIn","type":"uint256","internalType":"uint256"},{"name":"","type":"uint256","internalType":"uint256"}],"outputs":[{"name":"amountOut","type":"uint256","internalType":"uint256"}],"stateMutability":"nonpayable"},{"type":"function","name":"transferOwnership","inputs":[{"name":"newOwner","type":"address","internalType":"address"}],"outputs":[],"stateMutability":"nonpayable"},{"type":"function","name":"uniswapV3Adapter","inputs":[],"outputs":[{"name":"","type":"address","internalType":"contract TribeUniswapV3Adapter"}],"stateMutability":"view"},{"type":"function","name":"uniswapV3PositionManager","inputs":[],"outputs":[{"name":"","type":"address","internalType":"address"}],"stateMutability":"view"},{"type":"function","name":"updateProtocolAddresses","inputs":[{"name":"_uniswapV3PositionManager","type":"address","internalType":"address"},{"name":"_aerodromeRouter","type":"address","internalType":"address"}],"outputs":[],"stateMutability":"nonpayable"},{"type":"event","name":"FeesHarvested","inputs":[{"name":"leader","type":"address","indexed":true,"internalType":"address"},{"name":"token0","type":"address","indexed":false,"internalType":"address"},{"name":"token1","type":"address","indexed":false,"internalType":"address"},{"name":"fees0","type":"uint256","indexed":false,"internalType":"uint256"},{"name":"fees1","type":"uint256","indexed":false,"internalType":"uint256"}],"anonymous":false},{"type":"event","name":"LiquidityAdded","inputs":[{"name":"leader","type":"address","indexed":true,"internalType":"address"},{"name":"protocol","type":"address","indexed":true,"internalType":"address"},{"name":"token0","type":"address","indexed":false,"internalType":"address"},{"name":"token1","type":"address","indexed":false,"internalType":"address"},{"name":"amount0","type":"uint256","indexed":false,"internalType":"uint256"},{"name":"amount1","type":"uint256","indexed":false,"internalType":"uint256"},{"name":"followersMirrored","type":"uint256","indexed":false,"internalType":"uint256"}],"anonymous":false},{"type":"event","name":"LiquidityRemoved","inputs":[{"name":"leader","type":"address","indexed":true,"internalType":"address"},{"name":"protocol","type":"address","indexed":true,"internalType":"address"},{"name":"token0","type":"address","indexed":false,"internalType":"address"},{"name":"token1","type":"address","indexed":false,"internalType":"address"},{"name":"amount0","type":"uint256","indexed":false,"internalType":"uint256"},{"name":"amount1","type":"uint256","indexed":false,"internalType":"uint256"},{"name":"followersMirrored","type":"uint256","indexed":false,"internalType":"uint256"}],"anonymous":false},{"type":"event","name":"OwnershipTransferred","inputs":[{"name":"previousOwner","type":"address","indexed":true,"internalType":"address"},{"name":"newOwner","type":"address","indexed":true,"internalType":"address"}],"anonymous":false},{"type":"event","name":"PositionRebalanced","inputs":[{"name":"leader","type":"address","indexed":true,"internalType":"address"},{"name":"protocol","type":"address","indexed":true,"internalType":"address"},{"name":"newLiquidity","type":"uint256","indexed":false,"internalType":"uint256"},{"name":"followersMirrored","type":"uint256","indexed":false,"internalType":"uint256"}],"anonymous":false},{"type":"event","name":"TokensSwapped","inputs":[{"name":"leader","type":"address","indexed":true,"internalType":"address"},{"name":"tokenIn","type":"address","indexed":false,"internalType":"address"},{"name":"tokenOut","type":"address","indexed":false,"internalType":"address"},{"name":"amountIn","type":"uint256","indexed":false,"internalType":"uint256"},{"name":"amountOut","type":"uint256","indexed":false,"internalType":"uint256"}],"anonymous":false},{"type":"error","name":"AddressEmptyCode","inputs":[{"name":"target","type":"address","internalType":"address"}]},{"type":"error","name":"AddressInsufficientBalance","inputs":[{"name":"account","type":"address","internalType":"address"}]},{"type":"error","name":"FailedInnerCall","inputs":[]},{"type":"error","name":"OwnableInvalidOwner","inputs":[{"name":"owner","type":"address","internalType":"address"}]},{"type":"error","name":"OwnableUnauthorizedAccount","inputs":[{"name":"account","type":"address","internalType":"address"}]},{"type":"error","name":"ReentrancyGuardReentrantCall","inputs":[]},{"type":"error","name":"SafeERC20FailedOperation","inputs":[{"name":"token","type":"address","internalType":"address"}]}],"bytecode":{"object":"0x60c03461029257601f613b8338819003918201601f19168301916001600160401b038311848410176101ff578084926080946040528339810103126102925761004781610296565b9061005460208201610296565b9161006d606061006660408501610296565b9301610296565b9260015f55331561027f5760018054336001600160a01b0319821681179092556040519391906001600160a01b03167f8be0079c531659141344cd1fd0a4f28419497f9722a3daafe3b4186f6b6457e05f80a36001600160a01b031691821561024b57506001600160a01b03169081156102135760805260a052600280546001600160a01b039283166001600160a01b0319918216811790925560038054949093169316929092179055604051906114f68083018381106001600160401b038211176101ff57602092849261268d843981520301905ff080156101f457600480546001600160a01b0319166001600160a01b03929092169190911790556040516123e290816102ab82396080518181816103fa01528181610b5801528181610e260152818161124e015281816114fc0152818161174501528181611a090152611ce1015260a0518181816102c2015281816108d101528181610af901528181610dca015281816111ef015281816114a1015281816116e80152818161187901526119040152f35b6040513d5f823e3d90fd5b634e487b7160e01b5f52604160045260245ffd5b60405162461bcd60e51b815260206004820152601060248201526f496e76616c696420726567697374727960801b6044820152606490fd5b62461bcd60e51b815260206004820152600f60248201526e496e76616c696420666163746f727960881b6044820152606490fd5b631e4fbdf760e01b5f525f60045260245ffd5b5f80fd5b51906001600160a01b03821682036102925756fe60806040526004361015610011575f80fd5b5f3560e01c8063050470f114611d10578063103f290714611ccc578063119c46ae146118a85780631bcad55e14611864578063276dca70146116ac5780632cad910c14611458578063342a30c314611430578063365e50361461119a5780633915fe4d146110be5780635de09e0214610ff0578063715018a614610f955780637919e82314610d7d5780638da5cb5b14610d555780639ffe62bd14610c88578063a9db7fbc14610aad578063bd3a80cf14610a85578063d0d45cbe14610874578063e18e3a681461084c578063e40345e21461024c578063f2fde38b146101c65763fa60942a14610100575f80fd5b346101c25760403660031901126101c257610119611d94565b6001600160a01b03165f908152600560205260409020805460243591908210156101c2576101009161014a91611e5a565b50805460018201546002830154600384015460048501546005860154600690960154604051969095909491936001600160a01b039081169216906101918860ff8316611dcf565b60081c6001600160a01b0316602088015260408701526060860152608085015260a084015260c083015260e0820152f35b5f80fd5b346101c25760203660031901126101c2576101df611d94565b6101e761219b565b6001600160a01b0316801561023957600180546001600160a01b0319811683179091556001600160a01b03167f8be0079c531659141344cd1fd0a4f28419497f9722a3daafe3b4186f6b6457e05f80a3005b631e4fbdf760e01b5f525f60045260245ffd5b346101c2576101203660031901126101c257610266611d94565b61026e611daa565b6044359162ffffff831683036101c257606435918260020b83036101c257608435928360020b84036101c25760a435926102a66121c2565b604051631bbe8cfb60e01b8152336004820152956020876024817f00000000000000000000000000000000000000000000000000000000000000006001600160a01b03165afa968715610650575f9761030691899161081d575b50611ef2565b5a6004549096906103289087906001600160a01b0390811690339087166121e0565b6004546103489060c435906001600160a01b0390811690339089166121e0565b608060018060a01b0360045416610144604051809b8193633b5241ed60e01b835260018060a01b038916600484015260018060a01b038b16602484015262ffffff881660448401528960020b60648401528660020b60848401528b60a484015260c43560c484015260e43560e484015261010435610104840152336101248401525af1958615610650575f985f976107db575b5060405163062c48b160e11b81523360048201525f9990918a836024817f00000000000000000000000000000000000000000000000000000000000000006001600160a01b03165afa928315610650575f936107b7575b505f5b8351811015610727576001600160a01b036104508286611fe1565b516040516370a0823160e01b8152911660048201819052906020816024816001600160a01b038d165afa908115610650575f916106f6575b50602460208c604051928380926370a0823160e01b825287600483015260018060a01b03165afa908115610650575f916106c5575b50811515806106bc575b6104d7575b505050600101610435565b600480546002805460405163729208df60e11b81526001600160a01b039384169481019490945282166024840152818d166044840152908e16606483015262ffffff8b1660848301528c810b60a483015289900b60c4820152600192831c60e4820152911c610104820152919c918b918b918a908a908d90606081610124815f895af19081610672575b5061065b576020949392915f9162ffffff60405192168783015260020b60408201528b60020b60608201526060815261059b608082611eb8565b60025460405163ebce49a960e01b81526001600160a01b03918216600482015293811660248501529490941660448301526001600160801b0395909516606482015260a0608482015293849283919082906105fa9060a4830190611ff5565b03925af180156106505761061f575b50610615600191612019565b9b5b908d806104cc565b6020813d8211610648575b8161063760209383611eb8565b810103126101c25750610615610609565b3d915061062a565b6040513d5f823e3d90fd5b50505050505061066c600191612019565b9b610617565b965094505050506060833d82116106b4575b8161069160609383611eb8565b810103126101c25789898c8f95948f9560406106ad9101612187565b505f610561565b3d9150610684565b508015156104c7565b90506020813d82116106ee575b816106df60209383611eb8565b810103126101c257518f6104bd565b3d91506106d2565b90506020813d821161071f575b8161071060209383611eb8565b810103126101c257518e610488565b3d9150610703565b50906001600160801b03898c8a7fd11895475c54b7d51633ecc794cd50a555a5c13b37a9d83d28e8405e0a185ede8a8f9761076a60409960c4358387863361222b565b60025489516001600160a01b0393841681529483166020860152604085019190915260c4356060850152608084019490945290921691339160a090a360015f558351928352166020820152f35b6107d49193503d805f833e6107cc8183611eb8565b810190611f56565b918b610432565b985095506080883d608011610815575b816107f860809383611eb8565b810103126101c25761080e602089519901612187565b95896103db565b3d91506107eb565b61083f915060203d602011610845575b6108378183611eb8565b810190611eda565b89610300565b503d61082d565b346101c2575f3660031901126101c2576003546040516001600160a01b039091168152602090f35b346101c25760a03660031901126101c25761088d611d94565b610895611daa565b6044356001600160a01b038116908190036101c257606435916108b66121c2565b604051631bbe8cfb60e01b81523360048201526020816024817f00000000000000000000000000000000000000000000000000000000000000006001600160a01b03165afa801561065057610911915f91610a665750611ef2565b5a6001600160a01b039091169361092a843033886121e0565b60405163095ea7b360e01b81526001600160a01b038216600482015260248101859052916020836044815f8a5af1908115610650576109ff936109a892610a49575b506109a160405163a9059cbb60e01b60208201523360248201525f60448201526044815261099b606482611eb8565b866122a4565b5a90612027565b335f52600560205260405f2090604051926109c284611e87565b600484526001600160a01b031660208401526040830187905260608301859052608083018690525f60a08401524260c084015260e0830152612034565b604051928352602083015260408201525f60608201527fad56699d0f375866eb895ed27203058a36a713382aaded78eb6b67da266d433260803392a260015f5560206040515f8152f35b610a619060203d602011610845576108378183611eb8565b61096c565b610a7f915060203d602011610845576108378183611eb8565b86610300565b346101c2575f3660031901126101c2576004546040516001600160a01b039091168152602090f35b346101c25760803660031901126101c257610ac6611d94565b610ace611daa565b6044359160643591610ade6121c2565b604051631bbe8cfb60e01b81523360048201526020816024817f00000000000000000000000000000000000000000000000000000000000000006001600160a01b03165afa801561065057610b39915f91610a665750611ef2565b5a60405163062c48b160e11b8152336004820152909390925f846024817f00000000000000000000000000000000000000000000000000000000000000006001600160a01b03165afa938415610650575f94610c6c575b50935f936001600160a01b03808716949081169290865b8351811015610c58576001600160a01b03610bc28286611fe1565b5160045460025492909116916001600160a01b039182169116823b156101c25760c45f92838f958d96604051978896879563e393d58560e01b87526004870152602486015260448501528c606485015260848401528c60a48401525af19081610c48575b50610c34575b600101610ba7565b96610c40600191612019565b979050610c2c565b5f610c5291611eb8565b8b610c26565b610c6683878c858d3361222b565b60015f55005b610c819194503d805f833e6107cc8183611eb8565b9286610b90565b346101c25760203660031901126101c257610ca1611d94565b6001600160a01b03165f9081526005602052604081208054610cc281611f3e565b91610cd06040519384611eb8565b81835260208301905f5260205f205f915b838310610d37575f85875b8151831015610d2c5760e0610d018484611fe1565b5101518101809111610d1857600190920191610cec565b634e487b7160e01b5f52601160045260245ffd5b602090604051908152f35b60076020600192610d478561210c565b815201920192019190610ce1565b346101c2575f3660031901126101c2576001546040516001600160a01b039091168152602090f35b346101c25760c03660031901126101c257610d96611d94565b610d9e611daa565b610da6611dc0565b50610daf6121c2565b604051631bbe8cfb60e01b81523360048201526020816024817f00000000000000000000000000000000000000000000000000000000000000006001600160a01b03165afa801561065057610e0a915f91610f765750611ef2565b5a60405163062c48b160e11b8152336004820152915f836024817f00000000000000000000000000000000000000000000000000000000000000006001600160a01b03165afa928315610650575f93610f5a575b505f91825b8451841015610e7f57610e77600191612019565b930192610e63565b610ef9610e8f8794935a90612027565b93335f52600560205260405f2060018060a01b03600354169160405192610eb584611e87565b6001845260208401526001600160a01b03908116604084018190529516606083018190525f6080840181905260a08401524260c084015260e0830196909652612034565b60018060a01b03600354169260405192835260208301525f60408301525f606083015260808201527fe367d66d6ff9c5787f87a89db842e6287f1d8b0d9a26fd1563151b91e065520160a03392a360015f55604080515f81525f6020820152f35b610f6f9193503d805f833e6107cc8183611eb8565b9184610e5e565b610f8f915060203d602011610845576108378183611eb8565b84610300565b346101c2575f3660031901126101c257610fad61219b565b600180546001600160a01b031981169091555f906001600160a01b03167f8be0079c531659141344cd1fd0a4f28419497f9722a3daafe3b4186f6b6457e08280a3005b346101c25760203660031901126101c2576001600160a01b03611011611d94565b165f52600560205260405f2080549061102982611f3e565b916110376040519384611eb8565b8083526020830180925f5260205f205f915b8383106110a0578486604051918291602083019060208452518091526040830191905f5b81811061107b575050500390f35b919350916020610100826110926001948851611df0565b01940191019184939261106d565b600760206001926110b08561210c565b815201920192019190611049565b346101c25760203660031901126101c2576110d7611d94565b5f60e06040516110e681611e87565b8281528260208201528260408201528260608201528260808201528260a08201528260c0820152015260018060a01b0316805f52600560205260405f205415611168575f90815260056020526040902080545f198101908111610d18576111536111599161010093611e5a565b5061210c565b6111666040518092611df0565bf35b60405162461bcd60e51b815260206004820152600a6024820152694e6f20616374696f6e7360b01b6044820152606490fd5b346101c25760a03660031901126101c257600435602435908160020b8092036101c257604435918260020b8093036101c2576111d46121c2565b604051631bbe8cfb60e01b81523360048201526020816024817f00000000000000000000000000000000000000000000000000000000000000006001600160a01b03165afa80156106505761122f915f916114115750611ef2565b5a60405163062c48b160e11b8152336004820152909290915f836024817f00000000000000000000000000000000000000000000000000000000000000006001600160a01b03165afa928315610650575f936113f5575b505f92835b815185101561133c576001600160a01b036112a68684611fe1565b51169060405191846020840152886040840152604083526112c8606084611eb8565b803b156101c2576113075f9391849260405195868094819363adcf93b360e01b83528c6004840152836024840152606060448401526064830190611ff5565b03925af1908115610650576001926113249261132c575b50612019565b94019361128b565b5f61133691611eb8565b8961131e565b6113a461134a875a90612027565b335f52600560205260405f2060018060a01b0360025416916040519261136f84611e87565b6002845260208401525f60408401525f6060840152606435608084015260843560a08401524260c084015260e0830152612034565b60018060a01b036002541690604051905f825260208201527faf2b051a9887826e1faa150ff4681ae7e08b52c92d03817c2cf2ce204fb855d160403392a360015f55604080515f81525f6020820152f35b61140a9193503d805f833e6107cc8183611eb8565b9185611286565b61142a915060203d602011610845576108378183611eb8565b85610300565b346101c2575f3660031901126101c2576002546040516001600160a01b039091168152602090f35b346101c25760803660031901126101c2576004356024356001600160801b038116036101c2576114866121c2565b604051631bbe8cfb60e01b81523360048201526020816024817f00000000000000000000000000000000000000000000000000000000000000006001600160a01b03165afa8015610650576114e1915f9161168d5750611ef2565b5a60405163062c48b160e11b81523360048201525f816024817f00000000000000000000000000000000000000000000000000000000000000006001600160a01b03165afa908115610650575f91611673575b505f90815b81518310156115ac576001600160a01b036115548484611fe1565b511690813b156101c2575f809260246040518095819363f6d9b0b160e01b83528b60048401525af1908115610650576001926115949261159c5750612019565b920191611539565b5f6115a691611eb8565b8761131e565b6116106115ba855a90612027565b335f52600560205260405f2060018060a01b036002541691604051926115df84611e87565b6001845260208401525f60408401525f60608401525f60808401525f60a08401524260c084015260e0830152612034565b60018060a01b036002541690604051905f82525f60208301525f60408301525f606083015260808201527fe367d66d6ff9c5787f87a89db842e6287f1d8b0d9a26fd1563151b91e065520160a03392a360015f55604080515f81525f6020820152f35b61168791503d805f833e6107cc8183611eb8565b83611534565b6116a6915060203d602011610845576108378183611eb8565b83610300565b346101c25760403660031901126101c2576116c5611d94565b6116cd6121c2565b604051631bbe8cfb60e01b81523360048201526020816024817f00000000000000000000000000000000000000000000000000000000000000006001600160a01b03165afa801561065057611728915f9161168d5750611ef2565b5a60405163062c48b160e11b815233600482015291905f836024817f00000000000000000000000000000000000000000000000000000000000000006001600160a01b03165afa928315610650575f93611848575b505f5b835181101561179157600101611780565b6117f7836117a0845a90612027565b335f52600560205260405f2090604051926117ba84611e87565b600384526001600160a01b031660208401525f60408401819052606084018190526080840181905260a08401524260c084015260e0830152612034565b6040515f81525f60208201525f60408201525f60608201527f364f13d2d8db5decb1994f1951b5e294d9ff51c95444f3e047b8f4824089a74660803392a260015f55604080515f81525f6020820152f35b61185d9193503d805f833e6107cc8183611eb8565b918361177d565b346101c2575f3660031901126101c2576040517f00000000000000000000000000000000000000000000000000000000000000006001600160a01b03168152602090f35b346101c25760e03660031901126101c2576118c1611d94565b6118c9611daa565b6118d1611dc0565b60a4359260643592919060c4356084356118e96121c2565b604051631bbe8cfb60e01b81523360048201526020816024817f00000000000000000000000000000000000000000000000000000000000000006001600160a01b03165afa801561065057611944915f9161081d5750611ef2565b5a956001600160a01b0384169161195d823033866121e0565b6001600160a01b03871694611974823033896121e0565b60035460405163095ea7b360e01b81526001600160a01b039091166004820152602481018490526020816044815f895af1801561065057611caf575b5060035460405163095ea7b360e01b81526001600160a01b039091166004820152602481018390526020816044815f8b5af1801561065057611c92575b5060405163062c48b160e11b8152336004820152925f846024817f00000000000000000000000000000000000000000000000000000000000000006001600160a01b03165afa938415610650575f94611c76575b505f985f5b8551811015611b97576001600160a01b03611a618288611fe1565b51166040516302c3cb8b60e31b8152602081600481855afa8015610650578f915f91611b63575b50611a98575b5050600101611a46565b8a8c92602092949e946040519415158486015260408501528b606085015260608452611ac5608085611eb8565b8a5f60018060a01b0360035416611b0f6040519788968795869463ebce49a960e01b865260048601526024850152604484015283606484015260a0608484015260a4830190611ff5565b03925af1801561065057611b32575b50611b2a600191612019565b9a908d611a8e565b6020813d8211611b5b575b81611b4a60209383611eb8565b810103126101c25750611b2a611b1e565b3d9150611b3d565b9150506020813d8211611b8f575b81611b7e60209383611eb8565b810103126101c2578e90515f611a88565b3d9150611b71565b50907fd11895475c54b7d51633ecc794cd50a555a5c13b37a9d83d28e8405e0a185ede91611c658b611c24898f611bd08e915a90612027565b335f52600560205260405f209160018060a01b03600354169360405194611bf686611e87565b5f86526020860152604085015260608401528760808401528a60a08401524260c084015260e0830152612034565b600354604080516001600160a01b039889168152948816602086015284019490945260608301969096526080820195909552921692339290819060a0820190565b0390a360015f5560206040515f8152f35b611c8b9194503d805f833e6107cc8183611eb8565b928b611a41565b611caa9060203d602011610845576108378183611eb8565b6119ed565b611cc79060203d602011610845576108378183611eb8565b6119b0565b346101c2575f3660031901126101c2576040517f00000000000000000000000000000000000000000000000000000000000000006001600160a01b03168152602090f35b346101c25760403660031901126101c257611d29611d94565b611d31611daa565b90611d3a61219b565b6001600160a01b031680611d76575b506001600160a01b031680611d5a57005b6bffffffffffffffffffffffff60a01b60035416176003555f80f35b6bffffffffffffffffffffffff60a01b600254161760025581611d49565b600435906001600160a01b03821682036101c257565b602435906001600160a01b03821682036101c257565b6044359081151582036101c257565b906005821015611ddc5752565b634e487b7160e01b5f52602160045260245ffd5b60e08091611dff848251611dcf565b60018060a01b03602082015116602085015260018060a01b03604082015116604085015260018060a01b0360608201511660608501526080810151608085015260a081015160a085015260c081015160c08501520151910152565b8054821015611e73575f52600760205f20910201905f90565b634e487b7160e01b5f52603260045260245ffd5b610100810190811067ffffffffffffffff821117611ea457604052565b634e487b7160e01b5f52604160045260245ffd5b90601f8019910116810190811067ffffffffffffffff821117611ea457604052565b908160209103126101c2575180151581036101c25790565b15611ef957565b60405162461bcd60e51b815260206004820152601760248201527f4e6f7420612072656769737465726564206c65616465720000000000000000006044820152606490fd5b67ffffffffffffffff8111611ea45760051b60200190565b6020818303126101c25780519067ffffffffffffffff82116101c257019080601f830112156101c257815190611f8b82611f3e565b92611f996040519485611eb8565b82845260208085019360051b8201019182116101c257602001915b818310611fc15750505090565b82516001600160a01b03811681036101c257815260209283019201611fb4565b8051821015611e735760209160051b010190565b805180835260209291819084018484015e5f828201840152601f01601f1916010190565b5f198114610d185760010190565b91908203918211610d1857565b805468010000000000000000811015611ea45761205691600182018155611e5a565b9190916120f95780516005811015611ddc5782546020830151610100600160a81b0360089190911b1660ff929092166001600160a81b03199091161717825560408101516001830180546001600160a01b039283166001600160a01b03199182161790915560608301516002850180549190931691161790556080810151600383015560a0810151600483015560c0810151600583015560e00151600690910155565b634e487b7160e01b5f525f60045260245ffd5b9060405161211981611e87565b809280549060ff8216906005821015611ddc5790835260089190911c6001600160a01b039081166020840152600182015481166040840152600282015416606083015260038101546080830152600481015460a0830152600581015460c08301526006015460e09190910152565b51906001600160801b03821682036101c257565b6001546001600160a01b031633036121af57565b63118cdaa760e01b5f523360045260245ffd5b60025f54146121d15760025f55565b633ee5aeb560e01b5f5260045ffd5b6040516323b872dd60e01b60208201526001600160a01b03928316602482015292909116604483015260648083019390935291815261222991612224608483611eb8565b6122a4565b565b919261223e612229969592955a90612027565b9260018060a01b03165f52600560205260405f209360018060a01b0360025416956040519661226c88611e87565b5f885260208801526001600160a01b039081166040880152166060860152608085015260a08401524260c084015260e0830152612034565b81516001600160a01b03909116915f91829160200182855af13d15612342573d67ffffffffffffffff8111611ea4576122ff91604051916122ef6020601f19601f8401160184611eb8565b82523d5f602084013e5b8361234e565b8051908115159182612327575b50506123155750565b635274afe760e01b5f5260045260245ffd5b61233a9250602080918301019101611eda565b155f8061230c565b6122ff906060906122f9565b90612372575080511561236357805190602001fd5b630a12f52160e11b5f5260045ffd5b815115806123a3575b612383575090565b639996b31560e01b5f9081526001600160a01b0391909116600452602490fd5b50803b1561237b56fea264697066735822122059f258accf240a2e0aa5d8736f6985f9e2503372a4fa8da1641ba07eb18bad7b64736f6c634300081a003360a03461014657601f6114f638819003918201601f19168301916001600160401b0383118484101761014a5780849260209460405283398101031261014657516001600160a01b03811690819003610146573315610133575f8054336001600160a01b03198216811783556040519290916001600160a01b0316907f8be0079c531659141344cd1fd0a4f28419497f9722a3daafe3b4186f6b6457e09080a381156100f15750608052604051611397908161015f823960805181818161015a015281816105d10152818161075c015281816109bc01528181610a2a01528181610b7701528181610cb70152610d3f0152f35b62461bcd60e51b815260206004820152601860248201527f496e76616c696420706f736974696f6e206d616e6167657200000000000000006044820152606490fd5b631e4fbdf760e01b5f525f60045260245ffd5b5f80fd5b634e487b7160e01b5f52604160045260245ffdfe6080806040526004361015610012575f80fd5b5f905f3560e01c9081631bea83fe14610d2d5750806338ca63bc14610ca35780633b5241ed14610b16578063519f5099146109fa57806351f3b4bd146109195780636e608bc5146106e1578063715018a6146106875780638da5cb5b146106605780638e5f597714610520578063b787787f146104ec578063b8dc491b1461034b578063c691b0a1146101355763f2fde38b146100ad575f80fd5b34610132576020366003190112610132576100c6610d6e565b6100ce61121b565b6001600160a01b0316801561011e5781546001600160a01b03198116821783556001600160a01b03167f8be0079c531659141344cd1fd0a4f28419497f9722a3daafe3b4186f6b6457e08380a380f35b631e4fbdf760e01b82526004829052602482fd5b80fd5b50346101325760a0366003190112610132576004356024356044359160018060a01b037f00000000000000000000000000000000000000000000000000000000000000001660405163133f757160e31b815282600482015261018081602481855afa9081156103405782806101d3938789948b908c936102fc575b5091926101c5926001600160a01b031661107c565b6001600160a01b031661107c565b6040519160c0830183811067ffffffffffffffff8211176102e85760c4926060959492889260405283526020830194855260408301968752858301606435815260808401608435815260a0850191428352604051998a98899763219f5d1760e01b89525160048901525160248801525160448701525160648601525160848501525160a48401525af180156102dd5782918390849261028d575b50606093506001600160801b036040519316835260208301526040820152f35b925050506060813d6060116102d5575b816102aa60609383610e14565b810103126102d157606091506102bf81610e36565b6040602083015192015190915f61026d565b5080fd5b3d915061029d565b6040513d84823e3d90fd5b634e487b7160e01b87526041600452602487fd5b6101c5935061032391506101803d8111610339575b61031b8183610e14565b810190610f2e565b50969b9799509697506101b09650505050505050565b503d610311565b6040513d88823e3d90fd5b503461013257604036600319011261013257610365610d6e565b61036d610d84565b9061037661121b565b6001600160a01b031680156104b7576001600160a01b03821691821561047e576040516370a0823160e01b815230600482015290602082602481865afa91821561047357859261043b575b50811561040157816103f77fd092d7fceb5ea5a962639fcc27a7bb315e7637e699e3b108cd570c38c758430093602093866111df565b604051908152a380f35b60405162461bcd60e51b815260206004820152601260248201527104e6f20746f6b656e7320746f2073776565760741b6044820152606490fd5b9091506020813d60201161046b575b8161045760209383610e14565b810103126104675751905f6103c1565b5f80fd5b3d915061044a565b6040513d87823e3d90fd5b60405162461bcd60e51b8152602060048201526011602482015270125b9d985b1a59081c9958da5c1a595b9d607a1b6044820152606490fd5b60405162461bcd60e51b815260206004820152600d60248201526c24b73b30b634b2103a37b5b2b760991b6044820152606490fd5b5034610132576080366003190112610132576040610514606435604435602435600435611046565b82519182526020820152f35b503461013257608036600319011261013257602435906001600160801b038216809203610132576040519160a0830183811067ffffffffffffffff82111761064c57604052600435835260208301908152604083016044358152606084019060643582526001600160801b03608086019342855260405196630624e65f60e11b88525160048801525116602486015251604485015251606484015251608483015260408260a4818460018060a01b037f0000000000000000000000000000000000000000000000000000000000000000165af1801561063f576040928291610610575b5082519182526020820152f35b90506106329150823d8411610638575b61062a8183610e14565b810190610fde565b5f610603565b503d610620565b50604051903d90823e3d90fd5b634e487b7160e01b83526041600452602483fd5b5034610132578060031936011261013257546040516001600160a01b039091168152602090f35b50346101325780600319360112610132576106a061121b565b80546001600160a01b03198116825581906001600160a01b03167f8be0079c531659141344cd1fd0a4f28419497f9722a3daafe3b4186f6b6457e08280a380f35b503461013257610160366003190112610132576106fc610d6e565b90610705610d84565b61070d610db1565b610715610dc3565b61071d610dd3565b9160a4359360c4359161072e610d9a565b61014435986001600160a01b038a168a03610915576001600160a01b039081169689969594608094610821947f0000000000000000000000000000000000000000000000000000000000000000909416939092909161078e8c868d61107c565b6001600160a01b0316976107a388868b61107c565b62ffffff604051946107b486610de3565b8c86528a602087015216604085015260020b606084015260020b858301528960a08301528560c083015260e43560e08301526101043561010083015260018060a01b031661012082015242610140820152604051998a80948193634418b22b60e11b835260048301610e73565b03925af193841561090a578395849785966108bf575b509184899261088998999a85838a9897116108a9575b5050505083811161088d575b5050505060405194859485909493926001600160801b036060936080840197845216602083015260408201520152565b0390f35b6108a09361089a91610ff4565b916111df565b815f8080610859565b6108b69361089a91610ff4565b845f838161084d565b909392975061088996508895506108ef91945060803d608011610903575b6108e78183610e14565b810190610e4a565b919892975090955093919290919084610837565b503d6108dd565b6040513d85823e3d90fd5b8880fd5b503461013257604036600319011261013257610933610d84565b90604051916080830183811067ffffffffffffffff82111761064c5760409081526004803585526001600160a01b03928316602086019081526001600160801b0386840181815260608801828152855163fc6f786560e01b81529851948901949094529151851660248801529051811660448701529051166064850152908390608490829085907f0000000000000000000000000000000000000000000000000000000000000000165af1801561063f576040928291610610575082519182526020820152f35b50346101325760203660031901126101325760405163133f757160e31b81526004803590820152610180816024817f00000000000000000000000000000000000000000000000000000000000000006001600160a01b03165afa80156102dd57916101009281808182839184938596610aca575b6001600160801b03948a9794869462ffffff8b999587956040519b60018060a01b03168c5260018060a01b031660208c01521660408a015260020b606089015260020b60808801521660a08601521660c08401521660e0820152f35b50505050505050506001600160801b0362ffffff81610af881946101803d81116103395761031b8183610e14565b989e508e9d50979b5096995090975090955090935090919050610a6e565b50346101325761014036600319011261013257806080610c33610b37610d6e565b610b3f610d84565b90610b48610db1565b90610b51610dc3565b610b59610dd3565b60a4359060c4359262ffffff610b6d610d9a565b6001600160a01b037f00000000000000000000000000000000000000000000000000000000000000008116999716979096610ba9868b8b61107c565b6001600160a01b0316610bbd878b8361107c565b60405198610bca8a610de3565b8952602089015216604087015260020b606086015260020b8785015260a084015260c083015260e43560e08301526101043561010083015260018060a01b031661012082015242610140820152604051958680948193634418b22b60e11b835260048301610e73565b03925af1801561063f578190828091610c78575b906108899160405194859485909493926001600160801b036060936080840197845216602083015260408201520152565b50505050610c976108899160803d608011610903576108e78183610e14565b91935083929190610c47565b5034610467576020366003190112610467577f00000000000000000000000000000000000000000000000000000000000000006001600160a01b0316803b15610467575f8091602460405180948193630852cd8d60e31b835260043560048401525af18015610d2257610d14575080f35b610d2091505f90610e14565b005b6040513d5f823e3d90fd5b34610467575f366003190112610467577f00000000000000000000000000000000000000000000000000000000000000006001600160a01b03168152602090f35b600435906001600160a01b038216820361046757565b602435906001600160a01b038216820361046757565b61012435906001600160a01b038216820361046757565b6044359062ffffff8216820361046757565b606435908160020b820361046757565b608435908160020b820361046757565b610160810190811067ffffffffffffffff821117610e0057604052565b634e487b7160e01b5f52604160045260245ffd5b90601f8019910116810190811067ffffffffffffffff821117610e0057604052565b51906001600160801b038216820361046757565b919082608091031261046757815191610e6560208201610e36565b916060604083015192015190565b9190916101408061016083019460018060a01b03815116845260018060a01b03602082015116602085015262ffffff6040820151166040850152606081015160020b6060850152608081015160020b608085015260a081015160a085015260c081015160c085015260e081015160e085015261010081015161010085015260018060a01b03610120820151166101208501520151910152565b51906001600160a01b038216820361046757565b51908160020b820361046757565b9190826101809103126104675781516bffffffffffffffffffffffff811681036104675791610f5f60208201610f0c565b91610f6c60408301610f0c565b91610f7960608201610f0c565b91608082015162ffffff811681036104675791610f9860a08201610f20565b91610fa560c08301610f20565b91610fb260e08201610e36565b916101008201519161012081015191610fdb610160610fd46101408501610e36565b9301610e36565b90565b9190826040910312610467576020825192015190565b9190820391821161100157565b634e487b7160e01b5f52601160045260245ffd5b8181029291811591840414171561100157565b8115611032570490565b634e487b7160e01b5f52601260045260245ffd5b919392938215611071578161106b84611066610fdb969561106695611015565b611028565b95611015565b50505090505f905f90565b604051636eb1769f60e11b81523060048201526001600160a01b038381166024830181905294919390831691602085604481865afa948515610d22575f956111ab575b5084018094116110015760405163095ea7b360e01b602082019081526001600160a01b039290921660248201526044808201959095529384525f908190611107606487610e14565b85519082855af1906111176112c4565b82611179575b508161116e575b501561112f57505050565b61116761116c936040519063095ea7b360e01b602083015260248201525f604482015260448152611161606482610e14565b82611259565b611259565b565b90503b15155f611124565b80519192508115918215611191575b5050905f61111d565b6111a49250602080918301019101611241565b5f80611188565b9094506020813d6020116111d7575b816111c760209383610e14565b810103126104675751935f6110bf565b3d91506111ba565b60405163a9059cbb60e01b60208201526001600160a01b0392909216602483015260448083019390935291815261116c91611167606483610e14565b5f546001600160a01b0316330361122e57565b63118cdaa760e01b5f523360045260245ffd5b90816020910312610467575180151581036104675790565b5f806112819260018060a01b03169360208151910182865af161127a6112c4565b9083611303565b80519081151591826112a9575b50506112975750565b635274afe760e01b5f5260045260245ffd5b6112bc9250602080918301019101611241565b155f8061128e565b3d156112fe573d9067ffffffffffffffff8211610e0057604051916112f3601f8201601f191660200184610e14565b82523d5f602084013e565b606090565b90611327575080511561131857805190602001fd5b630a12f52160e11b5f5260045ffd5b81511580611358575b611338575090565b639996b31560e01b5f9081526001600160a01b0391909116600452602490fd5b50803b1561133056fea2646970667358221220905469b6c483e7b2e732bae27b9655d51168bdaf6dbf7e1fd9ec9b8579482bee64736f6c634300081a0033","linkReferences":{}},"methodIdentifiers":{"LEADER_REGISTRY()":"1bcad55e","VAULT_FACTORY()":"103f2907","addLiquidityAerodrome(address,address,bool,uint256,uint256,uint256,uint256)":"119c46ae","addLiquidityUniswapV3(address,address,uint24,int24,int24,uint256,uint256,uint256,uint256)":"e40345e2","aerodromeRouter()":"e18e3a68","closeUniswapV3PositionByPair(address,address,uint256,uint256)":"a9db7fbc","getLatestAction(address)":"3915fe4d","getLeaderActions(address)":"5de09e02","getTotalGasUsed(address)":"9ffe62bd","harvestFees(address,uint256)":"276dca70","leaderActions(address,uint256)":"fa60942a","owner()":"8da5cb5b","rebalanceUniswapV3(uint256,int24,int24,uint256,uint256)":"365e5036","removeLiquidityAerodrome(address,address,bool,uint256,uint256,uint256)":"7919e823","removeLiquidityUniswapV3(uint256,uint128,uint256,uint256)":"2cad910c","renounceOwnership()":"715018a6","swapTokens(address,address,address,uint256,uint256)":"d0d45cbe","transferOwnership(address)":"f2fde38b","uniswapV3Adapter()":"bd3a80cf","uniswapV3PositionManager()":"342a30c3","updateProtocolAddresses(address,address)":"050470f1"},"id":47}