{"abi":[{"type":"constructor","inputs":[{"name":"_positionManager","type":"address","internalType":"address"}],"stateMutability":"nonpayable"},{"type":"function","name":"POSITION_MANAGER","inputs":[],"outputs":[{"name":"","type":"address","internalType":"contract INonfungiblePositionManager"}],"stateMutability":"view"},{"type":"function","name":"burnPosition","inputs":[{"name":"tokenId","type":"uint256","internalType":"uint256"}],"outputs":[],"stateMutability":"nonpayable"},{"type":"function","name":"calculateProportionalAmounts","inputs":[{"name":"totalLiquidity","type":"uint256","internalType":"uint256"},{"name":"vaultShare","type":"uint256","internalType":"uint256"},{"name":"amount0","type":"uint256","internalType":"uint256"},{"name":"amount1","type":"uint256","internalType":"uint256"}],"outputs":[{"name":"proportionalAmount0","type":"uint256","internalType":"uint256"},{"name":"proportionalAmount1","type":"uint256","internalType":"uint256"}],"stateMutability":"pure"},{"type":"function","name":"collectFees","inputs":[{"name":"tokenId","type":"uint256","internalType":"uint256"},{"name":"recipient","type":"address","internalType":"address"}],"outputs":[{"name":"amount0","type":"uint256","internalType":"uint256"},{"name":"amount1","type":"uint256","internalType":"uint256"}],"stateMutability":"nonpayable"},{"type":"function","name":"decreaseLiquidity","inputs":[{"name":"tokenId","type":"uint256","internalType":"uint256"},{"name":"liquidity","type":"uint128","internalType":"uint128"},{"name":"amount0Min","type":"uint256","internalType":"uint256"},{"name":"amount1Min","type":"uint256","internalType":"uint256"}],"outputs":[{"name":"amount0","type":"uint256","internalType":"uint256"},{"name":"amount1","type":"uint256","internalType":"uint256"}],"stateMutability":"nonpayable"},{"type":"function","name":"getPositionInfo","inputs":[{"name":"tokenId","type":"uint256","internalType":"uint256"}],"outputs":[{"name":"token0","type":"address","internalType":"address"},{"name":"token1","type":"address","internalType":"address"},{"name":"fee","type":"uint24","internalType":"uint24"},{"name":"tickLower","type":"int24","internalType":"int24"},{"name":"tickUpper","type":"int24","internalType":"int24"},{"name":"liquidity","type":"uint128","internalType":"uint128"},{"name":"tokensOwed0","type":"uint128","internalType":"uint128"},{"name":"tokensOwed1","type":"uint128","internalType":"uint128"}],"stateMutability":"view"},{"type":"function","name":"increaseLiquidity","inputs":[{"name":"tokenId","type":"uint256","internalType":"uint256"},{"name":"amount0Desired","type":"uint256","internalType":"uint256"},{"name":"amount1Desired","type":"uint256","internalType":"uint256"},{"name":"amount0Min","type":"uint256","internalType":"uint256"},{"name":"amount1Min","type":"uint256","internalType":"uint256"}],"outputs":[{"name":"liquidity","type":"uint128","internalType":"uint128"},{"name":"amount0","type":"uint256","internalType":"uint256"},{"name":"amount1","type":"uint256","internalType":"uint256"}],"stateMutability":"nonpayable"},{"type":"function","name":"mintPosition","inputs":[{"name":"token0","type":"address","internalType":"address"},{"name":"token1","type":"address","internalType":"address"},{"name":"fee","type":"uint24","internalType":"uint24"},{"name":"tickLower","type":"int24","internalType":"int24"},{"name":"tickUpper","type":"int24","internalType":"int24"},{"name":"amount0Desired","type":"uint256","internalType":"uint256"},{"name":"amount1Desired","type":"uint256","internalType":"uint256"},{"name":"amount0Min","type":"uint256","internalType":"uint256"},{"name":"amount1Min","type":"uint256","internalType":"uint256"},{"name":"recipient","type":"address","internalType":"address"}],"outputs":[{"name":"tokenId","type":"uint256","internalType":"uint256"},{"name":"liquidity","type":"uint128","internalType":"uint128"},{"name":"amount0","type":"uint256","internalType":"uint256"},{"name":"amount1","type":"uint256","internalType":"uint256"}],"stateMutability":"nonpayable"},{"type":"function","name":"mintPositionWithRefund","inputs":[{"name":"token0","type":"address","internalType":"address"},{"name":"token1","type":"address","internalType":"address"},{"name":"fee","type":"uint24","internalType":"uint24"},{"name":"tickLower","type":"int24","internalType":"int24"},{"name":"tickUpper","type":"int24","internalType":"int24"},{"name":"amount0Desired","type":"uint256","internalType":"uint256"},{"name":"amount1Desired","type":"uint256","internalType":"uint256"},{"name":"amount0Min","type":"uint256","internalType":"uint256"},{"name":"amount1Min","type":"uint256","internalType":"uint256"},{"name":"recipient","type":"address","internalType":"address"},{"name":"refundTo","type":"address","internalType":"address"}],"outputs":[{"name":"tokenId","type":"uint256","internalType":"uint256"},{"name":"liquidity","type":"uint128","internalType":"uint128"},{"name":"amount0","type":"uint256","internalType":"uint256"},{"name":"amount1","type":"uint256","internalType":"uint256"}],"stateMutability":"nonpayable"},{"type":"function","name":"owner","inputs":[],"outputs":[{"name":"","type":"address","internalType":"address"}],"stateMutability":"view"},{"type":"function","name":"renounceOwnership","inputs":[],"outputs":[],"stateMutability":"nonpayable"},{"type":"function","name":"sweep","inputs":[{"name":"token","type":"address","internalType":"address"},{"name":"to","type":"address","internalType":"address"}],"outputs":[],"stateMutability":"nonpayable"},{"type":"function","name":"transferOwnership","inputs":[{"name":"newOwner","type":"address","internalType":"address"}],"outputs":[],"stateMutability":"nonpayable"},{"type":"event","name":"OwnershipTransferred","inputs":[{"name":"previousOwner","type":"address","indexed":true,"internalType":"address"},{"name":"newOwner","type":"address","indexed":true,"internalType":"address"}],"anonymous":false},{"type":"event","name":"TokensSwept","inputs":[{"name":"token","type":"address","indexed":true,"internalType":"address"},{"name":"to","type":"address","indexed":true,"internalType":"address"},{"name":"amount","type":"uint256","indexed":false,"internalType":"uint256"}],"anonymous":false},{"type":"error","name":"AddressEmptyCode","inputs":[{"name":"target","type":"address","internalType":"address"}]},{"type":"error","name":"AddressInsufficientBalance","inputs":[{"name":"account","type":"address","internalType":"address"}]},{"type":"error","name":"FailedInnerCall","inputs":[]},{"type":"error","name":"OwnableInvalidOwner","inputs":[{"name":"owner","type":"address","internalType":"address"}]},{"type":"error","name":"OwnableUnauthorizedAccount","inputs":[{"name":"account","type":"address","internalType":"address"}]},{"type":"error","name":"SafeERC20FailedOperation","inputs":[{"name":"token","type":"address","internalType":"address"}]}],"bytecode":{"object":"0x60a03461014657601f6114f638819003918201601f19168301916001600160401b0383118484101761014a5780849260209460405283398101031261014657516001600160a01b03811690819003610146573315610133575f8054336001600160a01b03198216811783556040519290916001600160a01b0316907f8be0079c531659141344cd1fd0a4f28419497f9722a3daafe3b4186f6b6457e09080a381156100f15750608052604051611397908161015f823960805181818161015a015281816105d10152818161075c015281816109bc01528181610a2a01528181610b7701528181610cb70152610d3f0152f35b62461bcd60e51b815260206004820152601860248201527f496e76616c696420706f736974696f6e206d616e6167657200000000000000006044820152606490fd5b631e4fbdf760e01b5f525f60045260245ffd5b5f80fd5b634e487b7160e01b5f52604160045260245ffdfe6080806040526004361015610012575f80fd5b5f905f3560e01c9081631bea83fe14610d2d5750806338ca63bc14610ca35780633b5241ed14610b16578063519f5099146109fa57806351f3b4bd146109195780636e608bc5146106e1578063715018a6146106875780638da5cb5b146106605780638e5f597714610520578063b787787f146104ec578063b8dc491b1461034b578063c691b0a1146101355763f2fde38b146100ad575f80fd5b34610132576020366003190112610132576100c6610d6e565b6100ce61121b565b6001600160a01b0316801561011e5781546001600160a01b03198116821783556001600160a01b03167f8be0079c531659141344cd1fd0a4f28419497f9722a3daafe3b4186f6b6457e08380a380f35b631e4fbdf760e01b82526004829052602482fd5b80fd5b50346101325760a0366003190112610132576004356024356044359160018060a01b037f00000000000000000000000000000000000000000000000000000000000000001660405163133f757160e31b815282600482015261018081602481855afa9081156103405782806101d3938789948b908c936102fc575b5091926101c5926001600160a01b031661107c565b6001600160a01b031661107c565b6040519160c0830183811067ffffffffffffffff8211176102e85760c4926060959492889260405283526020830194855260408301968752858301606435815260808401608435815260a0850191428352604051998a98899763219f5d1760e01b89525160048901525160248801525160448701525160648601525160848501525160a48401525af180156102dd5782918390849261028d575b50606093506001600160801b036040519316835260208301526040820152f35b925050506060813d6060116102d5575b816102aa60609383610e14565b810103126102d157606091506102bf81610e36565b6040602083015192015190915f61026d565b5080fd5b3d915061029d565b6040513d84823e3d90fd5b634e487b7160e01b87526041600452602487fd5b6101c5935061032391506101803d8111610339575b61031b8183610e14565b810190610f2e565b50969b9799509697506101b09650505050505050565b503d610311565b6040513d88823e3d90fd5b503461013257604036600319011261013257610365610d6e565b61036d610d84565b9061037661121b565b6001600160a01b031680156104b7576001600160a01b03821691821561047e576040516370a0823160e01b815230600482015290602082602481865afa91821561047357859261043b575b50811561040157816103f77fd092d7fceb5ea5a962639fcc27a7bb315e7637e699e3b108cd570c38c758430093602093866111df565b604051908152a380f35b60405162461bcd60e51b815260206004820152601260248201527104e6f20746f6b656e7320746f2073776565760741b6044820152606490fd5b9091506020813d60201161046b575b8161045760209383610e14565b810103126104675751905f6103c1565b5f80fd5b3d915061044a565b6040513d87823e3d90fd5b60405162461bcd60e51b8152602060048201526011602482015270125b9d985b1a59081c9958da5c1a595b9d607a1b6044820152606490fd5b60405162461bcd60e51b815260206004820152600d60248201526c24b73b30b634b2103a37b5b2b760991b6044820152606490fd5b5034610132576080366003190112610132576040610514606435604435602435600435611046565b82519182526020820152f35b503461013257608036600319011261013257602435906001600160801b038216809203610132576040519160a0830183811067ffffffffffffffff82111761064c57604052600435835260208301908152604083016044358152606084019060643582526001600160801b03608086019342855260405196630624e65f60e11b88525160048801525116602486015251604485015251606484015251608483015260408260a4818460018060a01b037f0000000000000000000000000000000000000000000000000000000000000000165af1801561063f576040928291610610575b5082519182526020820152f35b90506106329150823d8411610638575b61062a8183610e14565b810190610fde565b5f610603565b503d610620565b50604051903d90823e3d90fd5b634e487b7160e01b83526041600452602483fd5b5034610132578060031936011261013257546040516001600160a01b039091168152602090f35b50346101325780600319360112610132576106a061121b565b80546001600160a01b03198116825581906001600160a01b03167f8be0079c531659141344cd1fd0a4f28419497f9722a3daafe3b4186f6b6457e08280a380f35b503461013257610160366003190112610132576106fc610d6e565b90610705610d84565b61070d610db1565b610715610dc3565b61071d610dd3565b9160a4359360c4359161072e610d9a565b61014435986001600160a01b038a168a03610915576001600160a01b039081169689969594608094610821947f0000000000000000000000000000000000000000000000000000000000000000909416939092909161078e8c868d61107c565b6001600160a01b0316976107a388868b61107c565b62ffffff604051946107b486610de3565b8c86528a602087015216604085015260020b606084015260020b858301528960a08301528560c083015260e43560e08301526101043561010083015260018060a01b031661012082015242610140820152604051998a80948193634418b22b60e11b835260048301610e73565b03925af193841561090a578395849785966108bf575b509184899261088998999a85838a9897116108a9575b5050505083811161088d575b5050505060405194859485909493926001600160801b036060936080840197845216602083015260408201520152565b0390f35b6108a09361089a91610ff4565b916111df565b815f8080610859565b6108b69361089a91610ff4565b845f838161084d565b909392975061088996508895506108ef91945060803d608011610903575b6108e78183610e14565b810190610e4a565b919892975090955093919290919084610837565b503d6108dd565b6040513d85823e3d90fd5b8880fd5b503461013257604036600319011261013257610933610d84565b90604051916080830183811067ffffffffffffffff82111761064c5760409081526004803585526001600160a01b03928316602086019081526001600160801b0386840181815260608801828152855163fc6f786560e01b81529851948901949094529151851660248801529051811660448701529051166064850152908390608490829085907f0000000000000000000000000000000000000000000000000000000000000000165af1801561063f576040928291610610575082519182526020820152f35b50346101325760203660031901126101325760405163133f757160e31b81526004803590820152610180816024817f00000000000000000000000000000000000000000000000000000000000000006001600160a01b03165afa80156102dd57916101009281808182839184938596610aca575b6001600160801b03948a9794869462ffffff8b999587956040519b60018060a01b03168c5260018060a01b031660208c01521660408a015260020b606089015260020b60808801521660a08601521660c08401521660e0820152f35b50505050505050506001600160801b0362ffffff81610af881946101803d81116103395761031b8183610e14565b989e508e9d50979b5096995090975090955090935090919050610a6e565b50346101325761014036600319011261013257806080610c33610b37610d6e565b610b3f610d84565b90610b48610db1565b90610b51610dc3565b610b59610dd3565b60a4359060c4359262ffffff610b6d610d9a565b6001600160a01b037f00000000000000000000000000000000000000000000000000000000000000008116999716979096610ba9868b8b61107c565b6001600160a01b0316610bbd878b8361107c565b60405198610bca8a610de3565b8952602089015216604087015260020b606086015260020b8785015260a084015260c083015260e43560e08301526101043561010083015260018060a01b031661012082015242610140820152604051958680948193634418b22b60e11b835260048301610e73565b03925af1801561063f578190828091610c78575b906108899160405194859485909493926001600160801b036060936080840197845216602083015260408201520152565b50505050610c976108899160803d608011610903576108e78183610e14565b91935083929190610c47565b5034610467576020366003190112610467577f00000000000000000000000000000000000000000000000000000000000000006001600160a01b0316803b15610467575f8091602460405180948193630852cd8d60e31b835260043560048401525af18015610d2257610d14575080f35b610d2091505f90610e14565b005b6040513d5f823e3d90fd5b34610467575f366003190112610467577f00000000000000000000000000000000000000000000000000000000000000006001600160a01b03168152602090f35b600435906001600160a01b038216820361046757565b602435906001600160a01b038216820361046757565b61012435906001600160a01b038216820361046757565b6044359062ffffff8216820361046757565b606435908160020b820361046757565b608435908160020b820361046757565b610160810190811067ffffffffffffffff821117610e0057604052565b634e487b7160e01b5f52604160045260245ffd5b90601f8019910116810190811067ffffffffffffffff821117610e0057604052565b51906001600160801b038216820361046757565b919082608091031261046757815191610e6560208201610e36565b916060604083015192015190565b9190916101408061016083019460018060a01b03815116845260018060a01b03602082015116602085015262ffffff6040820151166040850152606081015160020b6060850152608081015160020b608085015260a081015160a085015260c081015160c085015260e081015160e085015261010081015161010085015260018060a01b03610120820151166101208501520151910152565b51906001600160a01b038216820361046757565b51908160020b820361046757565b9190826101809103126104675781516bffffffffffffffffffffffff811681036104675791610f5f60208201610f0c565b91610f6c60408301610f0c565b91610f7960608201610f0c565b91608082015162ffffff811681036104675791610f9860a08201610f20565b91610fa560c08301610f20565b91610fb260e08201610e36565b916101008201519161012081015191610fdb610160610fd46101408501610e36565b9301610e36565b90565b9190826040910312610467576020825192015190565b9190820391821161100157565b634e487b7160e01b5f52601160045260245ffd5b8181029291811591840414171561100157565b8115611032570490565b634e487b7160e01b5f52601260045260245ffd5b919392938215611071578161106b84611066610fdb969561106695611015565b611028565b95611015565b50505090505f905f90565b604051636eb1769f60e11b81523060048201526001600160a01b038381166024830181905294919390831691602085604481865afa948515610d22575f956111ab575b5084018094116110015760405163095ea7b360e01b602082019081526001600160a01b039290921660248201526044808201959095529384525f908190611107606487610e14565b85519082855af1906111176112c4565b82611179575b508161116e575b501561112f57505050565b61116761116c936040519063095ea7b360e01b602083015260248201525f604482015260448152611161606482610e14565b82611259565b611259565b565b90503b15155f611124565b80519192508115918215611191575b5050905f61111d565b6111a49250602080918301019101611241565b5f80611188565b9094506020813d6020116111d7575b816111c760209383610e14565b810103126104675751935f6110bf565b3d91506111ba565b60405163a9059cbb60e01b60208201526001600160a01b0392909216602483015260448083019390935291815261116c91611167606483610e14565b5f546001600160a01b0316330361122e57565b63118cdaa760e01b5f523360045260245ffd5b90816020910312610467575180151581036104675790565b5f806112819260018060a01b03169360208151910182865af161127a6112c4565b9083611303565b80519081151591826112a9575b50506112975750565b635274afe760e01b5f5260045260245ffd5b6112bc9250602080918301019101611241565b155f8061128e565b3d156112fe573d9067ffffffffffffffff8211610e0057604051916112f3601f8201601f191660200184610e14565b82523d5f602084013e565b606090565b90611327575080511561131857805190602001fd5b630a12f52160e11b5f5260045ffd5b81511580611358575b611338575090565b639996b31560e01b5f9081526001600160a01b0391909116600452602490fd5b50803b1561133056fea2646970667358221220905469b6c483e7b2e732bae27b9655d51168bdaf6dbf7e1fd9ec9b8579482bee64736f6c634300081a0033","linkReferences":{}},"methodIdentifiers":{"POSITION_MANAGER()":"1bea83fe","burnPosition(uint256)":"38ca63bc","calculateProportionalAmounts(uint256,uint256,uint256,uint256)":"b787787f","collectFees(uint256,address)":"51f3b4bd","decreaseLiquidity(uint256,uint128,uint256,uint256)":"8e5f5977","getPositionInfo(uint256)":"519f5099","increaseLiquidity(uint256,uint256,uint256,uint256,uint256)":"c691b0a1","mintPosition(address,address,uint24,int24,int24,uint256,uint256,uint256,uint256,address)":"3b5241ed","mintPositionWithRefund(address,address,uint24,int24,int24,uint256,uint256,uint256,uint256,address,address)":"6e608bc5","owner()":"8da5cb5b","renounceOwnership()":"715018a6","sweep(address,address)":"b8dc491b","transferOwnership(address)":"f2fde38b"},"id":50}