{"abi":[{"type":"constructor","inputs":[{"name":"_vaultFactory","type":"address","internalType":"address"},{"name":"_leaderRegistry","type":"address","internalType":"address"}],"stateMutability":"nonpayable"},{"type":"function","name":"BASIS_POINTS","inputs":[],"outputs":[{"name":"","type":"uint256","internalType":"uint256"}],"stateMutability":"view"},{"type":"function","name":"LEADER_REGISTRY","inputs":[],"outputs":[{"name":"","type":"address","internalType":"contract TribeLeaderRegistry"}],"stateMutability":"view"},{"type":"function","name":"PRICE_FEED_STALENESS_THRESHOLD","inputs":[],"outputs":[{"name":"","type":"uint256","internalType":"uint256"}],"stateMutability":"view"},{"type":"function","name":"SECONDS_PER_YEAR","inputs":[],"outputs":[{"name":"","type":"uint256","internalType":"uint256"}],"stateMutability":"view"},{"type":"function","name":"VAULT_FACTORY","inputs":[],"outputs":[{"name":"","type":"address","internalType":"contract TribeVaultFactory"}],"stateMutability":"view"},{"type":"function","name":"calculate30DayApr","inputs":[{"name":"leader","type":"address","internalType":"address"}],"outputs":[{"name":"","type":"uint256","internalType":"uint256"}],"stateMutability":"view"},{"type":"function","name":"calculateLeaderApr","inputs":[{"name":"leader","type":"address","internalType":"address"}],"outputs":[{"name":"","type":"uint256","internalType":"uint256"}],"stateMutability":"view"},{"type":"function","name":"calculateMaxDrawdown","inputs":[{"name":"leader","type":"address","internalType":"address"}],"outputs":[{"name":"","type":"uint256","internalType":"uint256"}],"stateMutability":"view"},{"type":"function","name":"calculateRiskScore","inputs":[{"name":"leader","type":"address","internalType":"address"}],"outputs":[{"name":"","type":"uint256","internalType":"uint256"}],"stateMutability":"view"},{"type":"function","name":"calculateUsdValue","inputs":[{"name":"token","type":"address","internalType":"address"},{"name":"amount","type":"uint256","internalType":"uint256"}],"outputs":[{"name":"","type":"uint256","internalType":"uint256"}],"stateMutability":"view"},{"type":"function","name":"calculateVaultApr","inputs":[{"name":"vault","type":"address","internalType":"address"}],"outputs":[{"name":"","type":"uint256","internalType":"uint256"}],"stateMutability":"view"},{"type":"function","name":"compareVsHodl","inputs":[{"name":"vault","type":"address","internalType":"address"},{"name":"token","type":"address","internalType":"address"}],"outputs":[{"name":"difference","type":"int256","internalType":"int256"}],"stateMutability":"view"},{"type":"function","name":"getLeaderMetrics","inputs":[{"name":"leader","type":"address","internalType":"address"}],"outputs":[{"name":"","type":"tuple","internalType":"struct TribePerformanceTracker.PerformanceMetrics","components":[{"name":"totalFeesEarned","type":"uint256","internalType":"uint256"},{"name":"netApr","type":"uint256","internalType":"uint256"},{"name":"totalVolume","type":"uint256","internalType":"uint256"},{"name":"maxDrawdown","type":"uint256","internalType":"uint256"},{"name":"riskScore","type":"uint256","internalType":"uint256"},{"name":"lastUpdated","type":"uint256","internalType":"uint256"}]}],"stateMutability":"view"},{"type":"function","name":"getLeaderSnapshots","inputs":[{"name":"leader","type":"address","internalType":"address"}],"outputs":[{"name":"","type":"tuple[]","internalType":"struct TribePerformanceTracker.Snapshot[]","components":[{"name":"timestamp","type":"uint256","internalType":"uint256"},{"name":"totalValue","type":"uint256","internalType":"uint256"},{"name":"feesCollected","type":"uint256","internalType":"uint256"}]}],"stateMutability":"view"},{"type":"function","name":"getTokenPriceUsd","inputs":[{"name":"token","type":"address","internalType":"address"}],"outputs":[{"name":"","type":"uint256","internalType":"uint256"}],"stateMutability":"view"},{"type":"function","name":"getVaultMetrics","inputs":[{"name":"vault","type":"address","internalType":"address"}],"outputs":[{"name":"","type":"tuple","internalType":"struct TribePerformanceTracker.PerformanceMetrics","components":[{"name":"totalFeesEarned","type":"uint256","internalType":"uint256"},{"name":"netApr","type":"uint256","internalType":"uint256"},{"name":"totalVolume","type":"uint256","internalType":"uint256"},{"name":"maxDrawdown","type":"uint256","internalType":"uint256"},{"name":"riskScore","type":"uint256","internalType":"uint256"},{"name":"lastUpdated","type":"uint256","internalType":"uint256"}]}],"stateMutability":"view"},{"type":"function","name":"getVaultSnapshots","inputs":[{"name":"vault","type":"address","internalType":"address"}],"outputs":[{"name":"","type":"tuple[]","internalType":"struct TribePerformanceTracker.Snapshot[]","components":[{"name":"timestamp","type":"uint256","internalType":"uint256"},{"name":"totalValue","type":"uint256","internalType":"uint256"},{"name":"feesCollected","type":"uint256","internalType":"uint256"}]}],"stateMutability":"view"},{"type":"function","name":"leaderMetrics","inputs":[{"name":"","type":"address","internalType":"address"}],"outputs":[{"name":"totalFeesEarned","type":"uint256","internalType":"uint256"},{"name":"netApr","type":"uint256","internalType":"uint256"},{"name":"totalVolume","type":"uint256","internalType":"uint256"},{"name":"maxDrawdown","type":"uint256","internalType":"uint256"},{"name":"riskScore","type":"uint256","internalType":"uint256"},{"name":"lastUpdated","type":"uint256","internalType":"uint256"}],"stateMutability":"view"},{"type":"function","name":"leaderSnapshots","inputs":[{"name":"","type":"address","internalType":"address"},{"name":"","type":"uint256","internalType":"uint256"}],"outputs":[{"name":"timestamp","type":"uint256","internalType":"uint256"},{"name":"totalValue","type":"uint256","internalType":"uint256"},{"name":"feesCollected","type":"uint256","internalType":"uint256"}],"stateMutability":"view"},{"type":"function","name":"owner","inputs":[],"outputs":[{"name":"","type":"address","internalType":"address"}],"stateMutability":"view"},{"type":"function","name":"priceFeeds","inputs":[{"name":"","type":"address","internalType":"address"}],"outputs":[{"name":"","type":"address","internalType":"address"}],"stateMutability":"view"},{"type":"function","name":"recordSnapshot","inputs":[{"name":"entity","type":"address","internalType":"address"},{"name":"totalValue","type":"uint256","internalType":"uint256"},{"name":"feesCollected","type":"uint256","internalType":"uint256"},{"name":"isVault","type":"bool","internalType":"bool"}],"outputs":[],"stateMutability":"nonpayable"},{"type":"function","name":"renounceOwnership","inputs":[],"outputs":[],"stateMutability":"nonpayable"},{"type":"function","name":"setPriceFeed","inputs":[{"name":"token","type":"address","internalType":"address"},{"name":"priceFeed","type":"address","internalType":"address"}],"outputs":[],"stateMutability":"nonpayable"},{"type":"function","name":"transferOwnership","inputs":[{"name":"newOwner","type":"address","internalType":"address"}],"outputs":[],"stateMutability":"nonpayable"},{"type":"function","name":"updateLeaderMetrics","inputs":[{"name":"leader","type":"address","internalType":"address"}],"outputs":[],"stateMutability":"nonpayable"},{"type":"function","name":"vaultMetrics","inputs":[{"name":"","type":"address","internalType":"address"}],"outputs":[{"name":"totalFeesEarned","type":"uint256","internalType":"uint256"},{"name":"netApr","type":"uint256","internalType":"uint256"},{"name":"totalVolume","type":"uint256","internalType":"uint256"},{"name":"maxDrawdown","type":"uint256","internalType":"uint256"},{"name":"riskScore","type":"uint256","internalType":"uint256"},{"name":"lastUpdated","type":"uint256","internalType":"uint256"}],"stateMutability":"view"},{"type":"function","name":"vaultSnapshots","inputs":[{"name":"","type":"address","internalType":"address"},{"name":"","type":"uint256","internalType":"uint256"}],"outputs":[{"name":"timestamp","type":"uint256","internalType":"uint256"},{"name":"totalValue","type":"uint256","internalType":"uint256"},{"name":"feesCollected","type":"uint256","internalType":"uint256"}],"stateMutability":"view"},{"type":"event","name":"MetricsUpdated","inputs":[{"name":"entity","type":"address","indexed":true,"internalType":"address"},{"name":"netApr","type":"uint256","indexed":false,"internalType":"uint256"},{"name":"totalFeesEarned","type":"uint256","indexed":false,"internalType":"uint256"}],"anonymous":false},{"type":"event","name":"OwnershipTransferred","inputs":[{"name":"previousOwner","type":"address","indexed":true,"internalType":"address"},{"name":"newOwner","type":"address","indexed":true,"internalType":"address"}],"anonymous":false},{"type":"event","name":"PriceFeedUpdated","inputs":[{"name":"token","type":"address","indexed":true,"internalType":"address"},{"name":"priceFeed","type":"address","indexed":true,"internalType":"address"}],"anonymous":false},{"type":"event","name":"SnapshotRecorded","inputs":[{"name":"entity","type":"address","indexed":true,"internalType":"address"},{"name":"totalValue","type":"uint256","indexed":false,"internalType":"uint256"},{"name":"timestamp","type":"uint256","indexed":false,"internalType":"uint256"}],"anonymous":false},{"type":"error","name":"OwnableInvalidOwner","inputs":[{"name":"owner","type":"address","internalType":"address"}]},{"type":"error","name":"OwnableUnauthorizedAccount","inputs":[{"name":"account","type":"address","internalType":"address"}]}],"bytecode":{"object":"0x60c03461016e57601f611ba038819003918201601f19168301916001600160401b0383118484101761017257808492604094855283398101031261016e57610052602061004b83610186565b9201610186565b331561015b575f8054336001600160a01b0319821681178355604051949290916001600160a01b0316907f8be0079c531659141344cd1fd0a4f28419497f9722a3daafe3b4186f6b6457e09080a36001600160a01b031691821561012757506001600160a01b03169081156100ef5760805260a052604051611a05908161019b823960805181610c79015260a0518181816102f10152610c350152f35b60405162461bcd60e51b815260206004820152601060248201526f496e76616c696420726567697374727960801b6044820152606490fd5b62461bcd60e51b815260206004820152600f60248201526e496e76616c696420666163746f727960881b6044820152606490fd5b631e4fbdf760e01b5f525f60045260245ffd5b5f80fd5b634e487b7160e01b5f52604160045260245ffd5b51906001600160a01b038216820361016e5756fe6080806040526004361015610012575f80fd5b5f3560e01c90816301835ae214610cef5750806305f6864814610ca8578063103f290714610c645780631bcad55e14610c205780631dc1255114610bdb57806325d9e5da14610b2c5780635a5b8ab414610b095780635b8971d214610a975780635ee66f5914610a7b57806361e84df2146109bc578063715018a614610965578063757fd65e1461089857806376e112861461079c578063782e580d1461077e5780638da5cb5b1461075757806391d011ce1461073457806394b8cd81146106855780639d30bb71146106625780639dcb511a14610622578063aace35d8146105ff578063bd4262001461057e578063d1f6d24e146102aa578063d50fa6d114610287578063dabcc4f614610253578063e1f1c4a714610237578063e6a69ab814610219578063f0fe2f84146101d95763f2fde38b14610150575f80fd5b346101d55760203660031901126101d557610169610d67565b6101716119a9565b6001600160a01b031680156101c2575f80546001600160a01b03198116831782556001600160a01b0316907f8be0079c531659141344cd1fd0a4f28419497f9722a3daafe3b4186f6b6457e09080a3005b631e4fbdf760e01b5f525f60045260245ffd5b5f80fd5b346101d55760403660031901126101d5576020670de0b6b3a7640000610210610208610203610d67565b611098565b602435610ec9565b04604051908152f35b346101d5575f3660031901126101d55760206040516301e133808152f35b346101d5575f3660031901126101d55760206040516127108152f35b346101d55760403660031901126101d557602061027f610271610d67565b610279610d7d565b90611853565b604051908152f35b346101d55760203660031901126101d557602061027f6102a5610d67565b6117b3565b346101d55760203660031901126101d5576102c3610d67565b604051631bbe8cfb60e01b81526001600160a01b0380831660048301819052929190602090829060249082907f0000000000000000000000000000000000000000000000000000000000000000165afa908115610573575f91610538575b50156105045761033081611562565b9061034361033d82610efa565b9161135f565b91835f52600460205260405f2091825467ffffffffffffffff81116104f0576040519361037660208360051b0186610e49565b81855260208501905f5260205f205f915b8383106104b9575050845191505080156104b1575f19810190811161046d576103b260409185610ea8565b510151905b8351938415610481575f19850194851161046d577f79f50eca0b5271175be5e46142efe86fd60e7de6fa43d1eb775db9247843ff499560206103fd604097600594610ea8565b510151905b86519361040e85610e11565b8585526020850192878452888601908152606086019182526080860192835260a08601934285528b5f526002602052895f20965187555160018701555160028601555160038501555160048401555191015582519182526020820152a2005b634e487b7160e01b5f52601160045260245ffd5b506040935060057f79f50eca0b5271175be5e46142efe86fd60e7de6fa43d1eb775db9247843ff49955f90610402565b505f906103b7565b600360206001926040516104cc81610e2d565b85548152848601548382015260028601546040820152815201920192019190610387565b634e487b7160e01b5f52604160045260245ffd5b60405162461bcd60e51b815260206004820152600c60248201526b2737ba1030903632b0b232b960a11b6044820152606490fd5b90506020813d60201161056b575b8161055360209383610e49565b810103126101d5575180151581036101d55783610321565b3d9150610546565b6040513d5f823e3d90fd5b346101d55760203660031901126101d5576001600160a01b0361059f610d67565b165f52600260205260405f2080546105fb60018301549260028101549060038101546005600483015492015492604051968796879260a094919796959260c0850198855260208501526040840152606083015260808201520152565b0390f35b346101d55760203660031901126101d557602061027f61061d610d67565b6116a8565b346101d55760203660031901126101d5576001600160a01b03610643610d67565b165f526001602052602060018060a01b0360405f205416604051908152f35b346101d55760203660031901126101d557602061027f610680610d67565b611562565b346101d55760203660031901126101d5576001600160a01b036106a6610d67565b165f52600560205260405f20805467ffffffffffffffff81116104f057604051916106d760208360051b0184610e49565b81835260208301905f5260205f205f915b8383106106fd57604051806105fb8782610dc0565b6003602060019260405161071081610e2d565b855481528486015483820152600286015460408201528152019201920191906106e8565b346101d55760203660031901126101d557602061027f610752610d67565b61135f565b346101d5575f3660031901126101d5575f546040516001600160a01b039091168152602090f35b346101d55760203660031901126101d557602061027f610203610d67565b346101d55760403660031901126101d5576107b5610d67565b6107bd610d7d565b906107c66119a9565b6001600160a01b0316908115610863576001600160a01b0316908115610829575f81815260016020526040812080546001600160a01b031916841790557fa8abe0398416476db5b05737cd4da3b3cbde5012d978a6a6c3fd49d3217535369080a3005b60405162461bcd60e51b8152602060048201526012602482015271125b9d985b1a59081c1c9a58d9481999595960721b6044820152606490fd5b60405162461bcd60e51b815260206004820152600d60248201526c24b73b30b634b2103a37b5b2b760991b6044820152606490fd5b346101d55760803660031901126101d5576108b1610d67565b6024359060643580151581036101d5577f69fdae27f6dfa638047542aac89e822c326d84c7f86a4cfe14842fc2d834c469916040918251906108f282610e2d565b428252856020830152604435848301525f14610940576001600160a01b0382165f9081526005602052839020610928919061101a565b81519384524260208501526001600160a01b031692a2005b6001600160a01b0382165f9081526004602052839020610960919061101a565b610928565b346101d5575f3660031901126101d55761097d6119a9565b5f80546001600160a01b0319811682556001600160a01b03167f8be0079c531659141344cd1fd0a4f28419497f9722a3daafe3b4186f6b6457e08280a3005b346101d55760203660031901126101d5576109d5610d67565b6109dd610e6b565b5060018060a01b03165f5260036020526105fb60405f20600560405191610a0383610e11565b8054835260018101546020840152600281015460408401526003810154606084015260048101546080840152015460a08201526040519182918291909160a08060c083019480518452602081015160208501526040810151604085015260608101516060850152608081015160808501520151910152565b346101d5575f3660031901126101d5576020604051610e108152f35b346101d55760403660031901126101d557610ab0610d67565b6001600160a01b03165f9081526005602052604090208054602435908110156101d557610adc91610d93565b5080546105fb60026001840154930154604051938493846040919493926060820195825260208201520152565b346101d55760203660031901126101d557602061027f610b27610d67565b610efa565b346101d55760203660031901126101d5576001600160a01b03610b4d610d67565b165f52600460205260405f20805467ffffffffffffffff81116104f05760405191610b7e60208360051b0184610e49565b81835260208301905f5260205f205f915b838310610ba457604051806105fb8782610dc0565b60036020600192604051610bb781610e2d565b85548152848601548382015260028601546040820152815201920192019190610b8f565b346101d55760403660031901126101d557610bf4610d67565b6001600160a01b03165f9081526004602052604090208054602435908110156101d557610adc91610d93565b346101d5575f3660031901126101d5576040517f00000000000000000000000000000000000000000000000000000000000000006001600160a01b03168152602090f35b346101d5575f3660031901126101d5576040517f00000000000000000000000000000000000000000000000000000000000000006001600160a01b03168152602090f35b346101d55760203660031901126101d557610cc1610d67565b610cc9610e6b565b5060018060a01b03165f5260026020526105fb60405f20600560405191610a0383610e11565b346101d55760203660031901126101d5576001600160a01b03610d10610d67565b165f526003602052806105fb60405f20805490600181015460028201546003830154916005600485015494015494879260a094919796959260c0850198855260208501526040840152606083015260808201520152565b600435906001600160a01b03821682036101d557565b602435906001600160a01b03821682036101d557565b8054821015610dac575f52600360205f20910201905f90565b634e487b7160e01b5f52603260045260245ffd5b60206040818301928281528451809452019201905f5b818110610de35750505090565b9091926020606060019260408751805183528481015185840152015160408201520194019101919091610dd6565b60c0810190811067ffffffffffffffff8211176104f057604052565b6060810190811067ffffffffffffffff8211176104f057604052565b90601f8019910116810190811067ffffffffffffffff8211176104f057604052565b60405190610e7882610e11565b5f60a0838281528260208201528260408201528260608201528260808201520152565b805115610dac5760200190565b8051821015610dac5760209160051b010190565b9190820391821161046d57565b8181029291811591840414171561046d57565b8115610ee6570490565b634e487b7160e01b5f52601260045260245ffd5b60018060a01b03165f52600460205260405f2090815467ffffffffffffffff81116104f05760405192610f3360208360051b0185610e49565b81845260208401905f5260205f205f915b838310610fe357505050506002825110610fde575f918290815b8151851015610fd7576020610f738684610ea8565b5101519080821115610f8c5750600190945b0193610f5e565b949085610f9d575b50600190610f85565b610fa79086610ebc565b612710810290808204612710149015171561046d5785610fc691610edc565b83811115610f945792506001610f94565b5090925050565b5f9150565b60036020600192604051610ff681610e2d565b85548152848601548382015260028601546040820152815201920192019190610f44565b8054680100000000000000008110156104f05761103c91600182018155610d93565b91909161105d57604081600292518455602081015160018501550151910155565b634e487b7160e01b5f525f60045260245ffd5b519069ffffffffffffffffffff821682036101d557565b60ff16604d811161046d57600a0a90565b6001600160a01b039081165f9081526001602052604090205416801561131857604051633fabe5a360e21b81529060a082600481845afa918215610573575f925f935f925f926112b5575b5069ffffffffffffffffffff80911691161061127d575f83131561124857801561120f57611114610e109142610ebc565b116111d55760206004916040519283809263313ce56760e01b82525afa8015610573575f90611198575b60ff169050601281101561116d576012039060ff821161046d5761116461116a92611087565b90610ec9565b90565b60128111611179575090565b601119019060ff821161046d5761119261116a92611087565b90610edc565b506020813d6020116111cd575b816111b260209383610e49565b810103126101d5575160ff811681036101d55760ff9061113e565b3d91506111a5565b60405162461bcd60e51b8152602060048201526012602482015271141c9a58d94819185d18481d1bdbc81bdb1960721b6044820152606490fd5b60405162461bcd60e51b81526020600482015260116024820152700496e76616c69642074696d657374616d7607c1b6044820152606490fd5b60405162461bcd60e51b815260206004820152600d60248201526c496e76616c696420707269636560981b6044820152606490fd5b60405162461bcd60e51b815260206004820152601060248201526f5374616c65207072696365206461746160801b6044820152606490fd5b945050505060a0823d60a011611310575b816112d360a09383610e49565b810103126101d5576112e482611070565b602083015169ffffffffffffffffffff80611306608060608801519701611070565b92959391506110e3565b3d91506112c6565b60405162461bcd60e51b8152602060048201526012602482015271141c9a58d94819995959081b9bdd081cd95d60721b6044820152606490fd5b9190820180921161046d57565b60018060a01b03165f52600460205260405f2090815467ffffffffffffffff81116104f0576040519261139860208360051b0185610e49565b81845260208401905f5260205f205f915b83831061152b5750505050815160038110611524575f905f19810190811161046d5760015b8451811015611451575f19810181811161046d5760206113ee8288610ea8565b5101516113ff575b506001016113ce565b9092602061140d8588610ea8565b51015190612710820291808304612710149015171561046d5761144461144a92602061143b6001968b610ea8565b51015190610edc565b90611352565b92906113f6565b5091908261145e91610edc565b905f9060015b8551811015611503575f19810181811161046d5760206114848289610ea8565b510151611495575b50600101611464565b60206114a48389969496610ea8565b51015191612710830292808404612710149015171561046d576114446114d5600194602061143b6114ed968d610ea8565b87808211156114f4576114e791610ebc565b80610ec9565b929061148c565b906114fe91610ebc565b6114e7565b509350611514915091606492610edc565b04606481111561116a5750606490565b5060329150565b6003602060019260405161153e81610e2d565b855481528486015483820152600286015460408201528152019201920191906113a9565b6001600160a01b03165f908152600460205260409020805467ffffffffffffffff81116104f0576040519161159d60208360051b0184610e49565b81835260208301905f5260205f205f915b8383106116715750505050600281511061166c576115cb81610e9b565b519080515f19810190811161046d576115e391610ea8565b51906115f28251825190610ebc565b9182156116655780602080611613604061161f950151604087015190610ebc565b94015191015190611352565b60011c8015611665576301e133808202918083046301e13380148115171561046d5764496cebb8000291808304612710149015171561046d5761116a9261119291610ec9565b5050505f90565b505f90565b6003602060019260405161168481610e2d565b855481528486015483820152600286015460408201528152019201920191906115ae565b6001600160a01b03165f908152600460205260409020805467ffffffffffffffff81116104f057604051916116e360208360051b0184610e49565b81835260208301905f5260205f205f915b83831061177c575050505080511561166c5762278cff19420142811161046d575f908251805b611745575b505081515f19810190811161046d5781101561173f576115cb9082610ea8565b50505f90565b5f19810181811161046d5761175b839186610ea8565b5151111561177257801561046d575f19018061171a565b9150505f8061171f565b6003602060019260405161178f81610e2d565b855481528486015483820152600286015460408201528152019201920191906116f4565b6001600160a01b03165f908152600560205260409020805467ffffffffffffffff81116104f057604051916117ee60208360051b0184610e49565b81835260208301905f5260205f205f915b83831061181c5750505050600281511061166c576115cb81610e9b565b6003602060019260405161182f81610e2d565b855481528486015483820152600286015460408201528152019201920191906117ff565b9061185d826117b3565b9160018060a01b03165f52600560205260405f2090815467ffffffffffffffff81116104f0576040519261189760208360051b0185610e49565b81845260208401905f5260205f205f915b83831061197257505050506002825110611665576118ce6118c882611098565b91611098565b825190925f19820191821161046d576118f56118ed6118fd9383610ea8565b515191610e9b565b515190610ebc565b91821561196a578161190e91610ebc565b90612710820291808304612710149015171561046d5761192d91610edc565b906301e133808202918083046301e13380149015171561046d5761195091610edc565b905f828203921281831281169183139015161761046d5790565b505050505f90565b6003602060019260405161198581610e2d565b855481528486015483820152600286015460408201528152019201920191906118a8565b5f546001600160a01b031633036119bc57565b63118cdaa760e01b5f523360045260245ffdfea2646970667358221220b21359a640ca1892a433486496a66d1441bc19de4ecbe8d3bb883e2cdde69ed464736f6c634300081a0033","linkReferences":{}},"methodIdentifiers":{"BASIS_POINTS()":"e1f1c4a7","LEADER_REGISTRY()":"1bcad55e","PRICE_FEED_STALENESS_THRESHOLD()":"5ee66f59","SECONDS_PER_YEAR()":"e6a69ab8","VAULT_FACTORY()":"103f2907","calculate30DayApr(address)":"aace35d8","calculateLeaderApr(address)":"9d30bb71","calculateMaxDrawdown(address)":"5a5b8ab4","calculateRiskScore(address)":"91d011ce","calculateUsdValue(address,uint256)":"f0fe2f84","calculateVaultApr(address)":"d50fa6d1","compareVsHodl(address,address)":"dabcc4f6","getLeaderMetrics(address)":"05f68648","getLeaderSnapshots(address)":"25d9e5da","getTokenPriceUsd(address)":"782e580d","getVaultMetrics(address)":"61e84df2","getVaultSnapshots(address)":"94b8cd81","leaderMetrics(address)":"bd426200","leaderSnapshots(address,uint256)":"1dc12551","owner()":"8da5cb5b","priceFeeds(address)":"9dcb511a","recordSnapshot(address,uint256,uint256,bool)":"757fd65e","renounceOwnership()":"715018a6","setPriceFeed(address,address)":"76e11286","transferOwnership(address)":"f2fde38b","updateLeaderMetrics(address)":"d1f6d24e","vaultMetrics(address)":"01835ae2","vaultSnapshots(address,uint256)":"5b8971d2"},"id":49}