{"abi":[{"type":"constructor","inputs":[{"name":"_router","type":"address","internalType":"address"}],"stateMutability":"nonpayable"},{"type":"function","name":"ROUTER","inputs":[],"outputs":[{"name":"","type":"address","internalType":"contract IAerodromeRouter"}],"stateMutability":"view"},{"type":"function","name":"addLiquidity","inputs":[{"name":"tokenA","type":"address","internalType":"address"},{"name":"tokenB","type":"address","internalType":"address"},{"name":"stable","type":"bool","internalType":"bool"},{"name":"amountADesired","type":"uint256","internalType":"uint256"},{"name":"amountBDesired","type":"uint256","internalType":"uint256"},{"name":"amountAMin","type":"uint256","internalType":"uint256"},{"name":"amountBMin","type":"uint256","internalType":"uint256"},{"name":"recipient","type":"address","internalType":"address"}],"outputs":[{"name":"amountA","type":"uint256","internalType":"uint256"},{"name":"amountB","type":"uint256","internalType":"uint256"},{"name":"liquidity","type":"uint256","internalType":"uint256"}],"stateMutability":"nonpayable"},{"type":"function","name":"calculateProportionalLp","inputs":[{"name":"totalLpTokens","type":"uint256","internalType":"uint256"},{"name":"vaultShare","type":"uint256","internalType":"uint256"},{"name":"totalShares","type":"uint256","internalType":"uint256"}],"outputs":[{"name":"","type":"uint256","internalType":"uint256"}],"stateMutability":"pure"},{"type":"function","name":"claimFees","inputs":[{"name":"tokenA","type":"address","internalType":"address"},{"name":"tokenB","type":"address","internalType":"address"},{"name":"stable","type":"bool","internalType":"bool"}],"outputs":[{"name":"claimed0","type":"uint256","internalType":"uint256"},{"name":"claimed1","type":"uint256","internalType":"uint256"}],"stateMutability":"nonpayable"},{"type":"function","name":"getAmountOut","inputs":[{"name":"amountIn","type":"uint256","internalType":"uint256"},{"name":"path","type":"address[]","internalType":"address[]"}],"outputs":[{"name":"","type":"uint256","internalType":"uint256"}],"stateMutability":"view"},{"type":"function","name":"getLpBalance","inputs":[{"name":"tokenA","type":"address","internalType":"address"},{"name":"tokenB","type":"address","internalType":"address"},{"name":"stable","type":"bool","internalType":"bool"},{"name":"account","type":"address","internalType":"address"}],"outputs":[{"name":"","type":"uint256","internalType":"uint256"}],"stateMutability":"view"},{"type":"function","name":"getPair","inputs":[{"name":"tokenA","type":"address","internalType":"address"},{"name":"tokenB","type":"address","internalType":"address"},{"name":"stable","type":"bool","internalType":"bool"}],"outputs":[{"name":"","type":"address","internalType":"address"}],"stateMutability":"view"},{"type":"function","name":"getReserves","inputs":[{"name":"tokenA","type":"address","internalType":"address"},{"name":"tokenB","type":"address","internalType":"address"},{"name":"stable","type":"bool","internalType":"bool"}],"outputs":[{"name":"reserve0","type":"uint256","internalType":"uint256"},{"name":"reserve1","type":"uint256","internalType":"uint256"}],"stateMutability":"view"},{"type":"function","name":"quoteLiquidity","inputs":[{"name":"tokenA","type":"address","internalType":"address"},{"name":"tokenB","type":"address","internalType":"address"},{"name":"stable","type":"bool","internalType":"bool"},{"name":"amountA","type":"uint256","internalType":"uint256"}],"outputs":[{"name":"amountB","type":"uint256","internalType":"uint256"}],"stateMutability":"view"},{"type":"function","name":"removeLiquidity","inputs":[{"name":"tokenA","type":"address","internalType":"address"},{"name":"tokenB","type":"address","internalType":"address"},{"name":"stable","type":"bool","internalType":"bool"},{"name":"liquidity","type":"uint256","internalType":"uint256"},{"name":"amountAMin","type":"uint256","internalType":"uint256"},{"name":"amountBMin","type":"uint256","internalType":"uint256"},{"name":"recipient","type":"address","internalType":"address"}],"outputs":[{"name":"amountA","type":"uint256","internalType":"uint256"},{"name":"amountB","type":"uint256","internalType":"uint256"}],"stateMutability":"nonpayable"},{"type":"function","name":"swapTokens","inputs":[{"name":"amountIn","type":"uint256","internalType":"uint256"},{"name":"amountOutMin","type":"uint256","internalType":"uint256"},{"name":"path","type":"address[]","internalType":"address[]"},{"name":"recipient","type":"address","internalType":"address"}],"outputs":[{"name":"amounts","type":"uint256[]","internalType":"uint256[]"}],"stateMutability":"nonpayable"}],"bytecode":{"object":"0x60a03460e157601f61106838819003918201601f19168301916001600160401b0383118484101760e55780849260209460405283398101031260e157516001600160a01b0381169081900360e157801560ab57608052604051610f6e90816100fa823960805181818160f601528181610220015281816103b10152818161059c01528181610768015281816108870152818161093f01528181610a4e01528181610bd90152610c890152f35b60405162461bcd60e51b815260206004820152600e60248201526d24b73b30b634b2103937baba32b960911b6044820152606490fd5b5f80fd5b634e487b7160e01b5f52604160045260245ffdfe60806040526004361015610011575f80fd5b5f3560e01c806301e4d85514610cb857806332fe7b2614610c7457806336d4a20a14610b8b5780635c231925146109fb5780635e60dab5146108f15780636801cc30146108395780637116942414610710578063790ba7b51461053c57806395ef2b4b1461035c578063b113b2f7146101b05763b8239ebb14610092575f80fd5b346101ac5760403660031901126101ac5760243567ffffffffffffffff81116101ac575f6100c76100f2923690600401610d2d565b604051938492839263d06ca61f60e01b84526004356004850152604060248501526044840191610ef4565b03817f00000000000000000000000000000000000000000000000000000000000000006001600160a01b03165afa9081156101a1575f9161017f575b5080515f19810190811161016b5781518110156101575760051b01602090810151604051908152f35b634e487b7160e01b5f52603260045260245ffd5b634e487b7160e01b5f52601160045260245ffd5b61019b91503d805f833e6101938183610daf565b810190610e6f565b5f61012e565b6040513d5f823e3d90fd5b5f80fd5b346101ac5760803660031901126101ac5760043560443567ffffffffffffffff81116101ac576101e4903690600401610d2d565b906101ed610d08565b9282156101575781356001600160a01b03811693908490036101ac5760405163095ea7b360e01b81526001600160a01b037f00000000000000000000000000000000000000000000000000000000000000001660048201819052602482018490529094909290602090869060449082905f905af19081156101a1576102a8965f96879361032f575b50604051978896879586946338ed173960e01b86526004860152602435602486015260a0604486015260a4850191610ef4565b6001600160a01b03909116606483015242608483015203925af19081156101a1575f91610315575b506040518091602082016020835281518091526020604084019201905f5b8181106102fc575050500390f35b82518452859450602093840193909201916001016102ee565b61032991503d805f833e6101938183610daf565b816102d0565b6103509060203d602011610355575b6103488183610daf565b810190610e57565b610275565b503d61033e565b346101ac5760e03660031901126101ac57610375610cdc565b61037d610cf2565b90610386610d1e565b916064359160c4356001600160a01b03811691908290036101ac5760405163260f701f60e11b8152917f00000000000000000000000000000000000000000000000000000000000000006001600160a01b0316602084806103ec8a898860048501610e04565b0381845afa9384156101a1575f9461050b575b5060405163095ea7b360e01b81526001600160a01b038281166004830152602482018890529094602091869160449183915f91165af19182156101a157604096610104955f946104ee575b508751988997889663037b79b160e21b885260018060a01b0316600488015260018060a01b03166024870152151560448601526064850152608435608485015260a43560a485015260c48401524260e48401525af19081156101a1576040915f915f916104bf575b5082519182526020820152f35b90506104e19150823d84116104e7575b6104d98183610daf565b810190610e26565b836104b2565b503d6104cf565b6105069060203d602011610355576103488183610daf565b61044a565b61052e91945060203d602011610535575b6105268183610daf565b810190610de5565b92876103ff565b503d61051c565b346101ac576101003660031901126101ac57610556610cdc565b61055e610cf2565b90610567610d1e565b916064359160e4356001600160a01b03811691608435918390036101ac5760405163095ea7b360e01b81526001600160a01b037f0000000000000000000000000000000000000000000000000000000000000000811660048301819052602483018890529592169291906020816044815f885af180156101a1576106f3575b5060405163095ea7b360e01b81526001600160a01b03868116600483015260248201849052919091169490936020856044815f8a5af19283156101a157606097610124965f956106d6575b50604051998a988997635a47ddc360e01b895260048901526024880152151560448701526064860152608485015260a43560a485015260c43560c485015260e4840152426101048401525af19081156101a1576060915f915f905f926106a5575b5060405192835260208301526040820152f35b9150506106c89150823d84116106cf575b6106c08183610daf565b810190610e3c565b9084610692565b503d6106b6565b6106ee9060203d602011610355576103488183610daf565b610631565b61070b9060203d602011610355576103488183610daf565b6105e6565b346101ac5760803660031901126101ac57610729610cdc565b610731610cf2565b90602061073c610d1e565b92610745610d08565b92610764604051958693849363260f701f60e11b855260048501610e04565b03817f00000000000000000000000000000000000000000000000000000000000000006001600160a01b03165afa9182156101a1575f92610817575b506040516370a0823160e01b81526001600160a01b0391821660048201529160209183916024918391165afa80156101a1575f906107e4575b602090604051908152f35b506020813d60201161080f575b816107fe60209383610daf565b810103126101ac57602090516107d9565b3d91506107f1565b602091925061083290823d8411610535576105268183610daf565b91906107a0565b346101ac5760603660031901126101ac57610852610cdc565b602061085c610cf2565b610864610d1e565b92610883604051948593849363260f701f60e11b855260048501610e04565b03817f00000000000000000000000000000000000000000000000000000000000000006001600160a01b03165afa80156101a1576020915f916108d4575b506040516001600160a01b039091168152f35b6108eb9150823d8411610535576105268183610daf565b826108c1565b346101ac5760603660031901126101ac5761090a610cdc565b6020610914610cf2565b61091c610d1e565b9261093b604051948593849363260f701f60e11b855260048501610e04565b03817f00000000000000000000000000000000000000000000000000000000000000006001600160a01b03165afa9081156101a1576004916060915f916109dc575b50604051630240bc6b60e21b815292839182906001600160a01b03165afa9081156101a1576040915f915f916109ba575082519182526020820152f35b90506109d5915060603d6060116106cf576106c08183610daf565b50836104b2565b6109f5915060203d602011610535576105268183610daf565b8361097d565b346101ac5760803660031901126101ac57610a14610cdc565b610a1c610cf2565b610a4a6020610a29610d1e565b60405163260f701f60e11b8152606435949093849283928860048501610e04565b03817f00000000000000000000000000000000000000000000000000000000000000006001600160a01b03165afa9081156101a1575f91610b6c575b50604051630240bc6b60e21b81526001600160a01b0391909116929091606083600481875afa9182156101a1576004945f945f94610b43575b5060209060405196878092630dfe168160e01b82525afa80156101a1576020955f91610b26575b506001600160a01b03918216911603610b1457610b0c9291610b0791610d5e565b610d71565b604051908152f35b610b2192610b0791610d5e565b610b0c565b610b3d9150863d8811610535576105268183610daf565b86610ae6565b60209550610b6191945060603d6060116106cf576106c08183610daf565b509490949390610abf565b610b85915060203d602011610535576105268183610daf565b83610a86565b346101ac5760603660031901126101ac57610ba4610cdc565b6020610bae610cf2565b610bb6610d1e565b92610bd5604051948593849363260f701f60e11b855260048501610e04565b03817f00000000000000000000000000000000000000000000000000000000000000006001600160a01b03165afa9081156101a1575f916040918391610c55575b50815163d294f09360e01b815292839160049183916001600160a01b03165af19081156101a1576040915f915f916104bf575082519182526020820152f35b610c6e915060203d602011610535576105268183610daf565b83610c16565b346101ac575f3660031901126101ac576040517f00000000000000000000000000000000000000000000000000000000000000006001600160a01b03168152602090f35b346101ac5760603660031901126101ac576020610b0c604435602435600435610d8f565b600435906001600160a01b03821682036101ac57565b602435906001600160a01b03821682036101ac57565b606435906001600160a01b03821682036101ac57565b6044359081151582036101ac57565b9181601f840112156101ac5782359167ffffffffffffffff83116101ac576020808501948460051b0101116101ac57565b8181029291811591840414171561016b57565b8115610d7b570490565b634e487b7160e01b5f52601260045260245ffd5b9190918115610da857610da592610b0791610d5e565b90565b5050505f90565b90601f8019910116810190811067ffffffffffffffff821117610dd157604052565b634e487b7160e01b5f52604160045260245ffd5b908160209103126101ac57516001600160a01b03811681036101ac5790565b6001600160a01b03918216815291166020820152901515604082015260600190565b91908260409103126101ac576020825192015190565b908160609103126101ac578051916040602083015192015190565b908160209103126101ac575180151581036101ac5790565b6020818303126101ac5780519067ffffffffffffffff82116101ac57019080601f830112156101ac5781519167ffffffffffffffff8311610dd1578260051b9060405193610ec06020840186610daf565b84526020808501928201019283116101ac57602001905b828210610ee45750505090565b8151815260209182019101610ed7565b916020908281520191905f905b808210610f0e5750505090565b90919283359060018060a01b0382168092036101ac57602081600193829352019401920190610f0156fea2646970667358221220f1437e2e62cc06c91656a808e3e894134d65aa66075ad6e5068a14f1e6d884b764736f6c634300081a0033","linkReferences":{}},"methodIdentifiers":{"ROUTER()":"32fe7b26","addLiquidity(address,address,bool,uint256,uint256,uint256,uint256,address)":"790ba7b5","calculateProportionalLp(uint256,uint256,uint256)":"01e4d855","claimFees(address,address,bool)":"36d4a20a","getAmountOut(uint256,address[])":"b8239ebb","getLpBalance(address,address,bool,address)":"71169424","getPair(address,address,bool)":"6801cc30","getReserves(address,address,bool)":"5e60dab5","quoteLiquidity(address,address,bool,uint256)":"5c231925","removeLiquidity(address,address,bool,uint256,uint256,uint256,address)":"95ef2b4b","swapTokens(uint256,uint256,address[],address)":"b113b2f7"},"id":44}