{"abi":[{"type":"constructor","inputs":[],"stateMutability":"nonpayable"},{"type":"function","name":"MAX_PERFORMANCE_FEE","inputs":[],"outputs":[{"name":"","type":"uint16","internalType":"uint16"}],"stateMutability":"view"},{"type":"function","name":"MIN_HISTORICAL_POSITIONS","inputs":[],"outputs":[{"name":"","type":"uint256","internalType":"uint256"}],"stateMutability":"view"},{"type":"function","name":"MIN_PROFITABILITY_PERCENT","inputs":[],"outputs":[{"name":"","type":"uint256","internalType":"uint256"}],"stateMutability":"view"},{"type":"function","name":"addAuthorizedUpdater","inputs":[{"name":"updater","type":"address","internalType":"address"}],"outputs":[],"stateMutability":"nonpayable"},{"type":"function","name":"allLeaders","inputs":[{"name":"","type":"uint256","internalType":"uint256"}],"outputs":[{"name":"","type":"address","internalType":"address"}],"stateMutability":"view"},{"type":"function","name":"authorizedUpdaters","inputs":[{"name":"","type":"address","internalType":"address"}],"outputs":[{"name":"","type":"bool","internalType":"bool"}],"stateMutability":"view"},{"type":"function","name":"calculateProfitability","inputs":[{"name":"leader","type":"address","internalType":"address"}],"outputs":[{"name":"","type":"uint256","internalType":"uint256"}],"stateMutability":"view"},{"type":"function","name":"deactivateLeader","inputs":[{"name":"leader","type":"address","internalType":"address"}],"outputs":[],"stateMutability":"nonpayable"},{"type":"function","name":"getAllLeaders","inputs":[],"outputs":[{"name":"","type":"address[]","internalType":"address[]"}],"stateMutability":"view"},{"type":"function","name":"getLeader","inputs":[{"name":"leader","type":"address","internalType":"address"}],"outputs":[{"name":"","type":"tuple","internalType":"struct TribeLeaderRegistry.Leader","components":[{"name":"wallet","type":"address","internalType":"address"},{"name":"strategyName","type":"string","internalType":"string"},{"name":"description","type":"string","internalType":"string"},{"name":"isActive","type":"bool","internalType":"bool"},{"name":"registrationTime","type":"uint256","internalType":"uint256"},{"name":"totalFollowers","type":"uint256","internalType":"uint256"},{"name":"totalTvl","type":"uint256","internalType":"uint256"},{"name":"performanceFeePercent","type":"uint16","internalType":"uint16"}]}],"stateMutability":"view"},{"type":"function","name":"getLeaderHistory","inputs":[{"name":"leader","type":"address","internalType":"address"}],"outputs":[{"name":"","type":"tuple[]","internalType":"struct TribeLeaderRegistry.HistoricalPosition[]","components":[{"name":"token0","type":"address","internalType":"address"},{"name":"token1","type":"address","internalType":"address"},{"name":"openTime","type":"uint256","internalType":"uint256"},{"name":"closeTime","type":"uint256","internalType":"uint256"},{"name":"principalUsd","type":"uint256","internalType":"uint256"},{"name":"netPnLUsd","type":"int256","internalType":"int256"},{"name":"isProfitable","type":"bool","internalType":"bool"}]}],"stateMutability":"view"},{"type":"function","name":"isRegisteredLeader","inputs":[{"name":"","type":"address","internalType":"address"}],"outputs":[{"name":"","type":"bool","internalType":"bool"}],"stateMutability":"view"},{"type":"function","name":"leaderHistory","inputs":[{"name":"","type":"address","internalType":"address"},{"name":"","type":"uint256","internalType":"uint256"}],"outputs":[{"name":"token0","type":"address","internalType":"address"},{"name":"token1","type":"address","internalType":"address"},{"name":"openTime","type":"uint256","internalType":"uint256"},{"name":"closeTime","type":"uint256","internalType":"uint256"},{"name":"principalUsd","type":"uint256","internalType":"uint256"},{"name":"netPnLUsd","type":"int256","internalType":"int256"},{"name":"isProfitable","type":"bool","internalType":"bool"}],"stateMutability":"view"},{"type":"function","name":"leaders","inputs":[{"name":"","type":"address","internalType":"address"}],"outputs":[{"name":"wallet","type":"address","internalType":"address"},{"name":"strategyName","type":"string","internalType":"string"},{"name":"description","type":"string","internalType":"string"},{"name":"isActive","type":"bool","internalType":"bool"},{"name":"registrationTime","type":"uint256","internalType":"uint256"},{"name":"totalFollowers","type":"uint256","internalType":"uint256"},{"name":"totalTvl","type":"uint256","internalType":"uint256"},{"name":"performanceFeePercent","type":"uint16","internalType":"uint16"}],"stateMutability":"view"},{"type":"function","name":"owner","inputs":[],"outputs":[{"name":"","type":"address","internalType":"address"}],"stateMutability":"view"},{"type":"function","name":"reactivateLeader","inputs":[{"name":"leader","type":"address","internalType":"address"}],"outputs":[],"stateMutability":"nonpayable"},{"type":"function","name":"registerAsLeader","inputs":[{"name":"strategyName","type":"string","internalType":"string"},{"name":"description","type":"string","internalType":"string"},{"name":"performanceFeePercent","type":"uint16","internalType":"uint16"}],"outputs":[],"stateMutability":"nonpayable"},{"type":"function","name":"removeAuthorizedUpdater","inputs":[{"name":"updater","type":"address","internalType":"address"}],"outputs":[],"stateMutability":"nonpayable"},{"type":"function","name":"renounceOwnership","inputs":[],"outputs":[],"stateMutability":"nonpayable"},{"type":"function","name":"submitHistoricalPositions","inputs":[{"name":"positions","type":"tuple[]","internalType":"struct TribeLeaderRegistry.HistoricalPosition[]","components":[{"name":"token0","type":"address","internalType":"address"},{"name":"token1","type":"address","internalType":"address"},{"name":"openTime","type":"uint256","internalType":"uint256"},{"name":"closeTime","type":"uint256","internalType":"uint256"},{"name":"principalUsd","type":"uint256","internalType":"uint256"},{"name":"netPnLUsd","type":"int256","internalType":"int256"},{"name":"isProfitable","type":"bool","internalType":"bool"}]}],"outputs":[],"stateMutability":"nonpayable"},{"type":"function","name":"transferOwnership","inputs":[{"name":"newOwner","type":"address","internalType":"address"}],"outputs":[],"stateMutability":"nonpayable"},{"type":"function","name":"updateLeaderMetrics","inputs":[{"name":"leader","type":"address","internalType":"address"},{"name":"followerCount","type":"uint256","internalType":"uint256"},{"name":"tvl","type":"uint256","internalType":"uint256"}],"outputs":[],"stateMutability":"nonpayable"},{"type":"function","name":"updateStrategy","inputs":[{"name":"newName","type":"string","internalType":"string"},{"name":"newDescription","type":"string","internalType":"string"}],"outputs":[],"stateMutability":"nonpayable"},{"type":"event","name":"AuthorizedUpdaterAdded","inputs":[{"name":"updater","type":"address","indexed":true,"internalType":"address"}],"anonymous":false},{"type":"event","name":"AuthorizedUpdaterRemoved","inputs":[{"name":"updater","type":"address","indexed":true,"internalType":"address"}],"anonymous":false},{"type":"event","name":"HistoricalPositionAdded","inputs":[{"name":"leader","type":"address","indexed":true,"internalType":"address"},{"name":"isProfitable","type":"bool","indexed":false,"internalType":"bool"}],"anonymous":false},{"type":"event","name":"LeaderDeactivated","inputs":[{"name":"leader","type":"address","indexed":true,"internalType":"address"}],"anonymous":false},{"type":"event","name":"LeaderReactivated","inputs":[{"name":"leader","type":"address","indexed":true,"internalType":"address"}],"anonymous":false},{"type":"event","name":"LeaderRegistered","inputs":[{"name":"leader","type":"address","indexed":true,"internalType":"address"},{"name":"strategyName","type":"string","indexed":false,"internalType":"string"},{"name":"performanceFee","type":"uint16","indexed":false,"internalType":"uint16"}],"anonymous":false},{"type":"event","name":"OwnershipTransferred","inputs":[{"name":"previousOwner","type":"address","indexed":true,"internalType":"address"},{"name":"newOwner","type":"address","indexed":true,"internalType":"address"}],"anonymous":false},{"type":"event","name":"StrategyUpdated","inputs":[{"name":"leader","type":"address","indexed":true,"internalType":"address"},{"name":"newName","type":"string","indexed":false,"internalType":"string"},{"name":"newDescription","type":"string","indexed":false,"internalType":"string"}],"anonymous":false},{"type":"error","name":"OwnableInvalidOwner","inputs":[{"name":"owner","type":"address","internalType":"address"}]},{"type":"error","name":"OwnableUnauthorizedAccount","inputs":[{"name":"account","type":"address","internalType":"address"}]},{"type":"error","name":"ReentrancyGuardReentrantCall","inputs":[]}],"bytecode":{"object":"0x6080806040523460755733156062575f8054336001600160a01b0319821681178355916001600160a01b03909116907f8be0079c531659141344cd1fd0a4f28419497f9722a3daafe3b4186f6b6457e09080a360018055611ade908161007a8239f35b631e4fbdf760e01b5f525f60045260245ffd5b5f80fdfe6080806040526004361015610012575f80fd5b5f3560e01c908162692dd3146115785750806303c16c4f1461155d5780631bbe8cfb146115205780631cb23482146113b05780632dc768981461112a5780632fcfa259146110755780633a16460d146110335780633dc0f16f14610bdb57806355a78e6e14610b5a578063603cda0914610af5578063715018a614610a9e578063749ea598146109d95780637a54d7bf146109555780638919f3b41461092a5780638c9b9fdc146108865780638da5cb5b1461085f5780638ff29cfe14610822578063bdca916514610806578063c319e86414610487578063e74d6d1b14610313578063e86cc28d1461024b578063ece21b84146101a15763f2fde38b14610118575f80fd5b3461019d57602036600319011261019d57610131611591565b610139611a82565b6001600160a01b0316801561018a575f80546001600160a01b03198116831782556001600160a01b0316907f8be0079c531659141344cd1fd0a4f28419497f9722a3daafe3b4186f6b6457e09080a3005b631e4fbdf760e01b5f525f60045260245ffd5b5f80fd5b3461019d57604036600319011261019d576101ba611591565b6001600160a01b03165f9081526003602052604090208054602435919082101561019d5760e0916101ea91611754565b50805460018201546002830154600384015460048501546005860154600690960154604080516001600160a01b039788168152959096166020860152948401929092526060830152608082015260a081019290925260ff16151560c0820152f35b3461019d575f36600319011261019d576040518060206005549283815201809260055f527f036b6384b5eca791c62761152d0c79bb0604c104a5fb6f4eb0703f3154bb3db0905f5b8181106102f457505050816102a991038261166f565b604051918291602083019060208452518091526040830191905f5b8181106102d2575050500390f35b82516001600160a01b03168452859450602093840193909201916001016102c4565b82546001600160a01b0316845260209093019260019283019201610293565b3461019d57602036600319011261019d5761032c611591565b5f60e060405161033b81611653565b82815260606020820152606060408201528260608201528260808201528260a08201528260c0820152015260018060a01b0316805f52600460205261038660ff60405f20541661176d565b5f52600260205260405f2060405161039d81611653565b81546001600160a01b031681526103b660018301611690565b916020820192835261ffff6103cd60028301611690565b6040840190815260ff6003840154169260608501931515845260048101546080860190815260058201549060a0870191825261046085600760068601549560c08b019687520154169460e0890195865261044d6040519a8b9a60208c5260018060a01b0390511660208c01525161010060408c01526101208b0190611730565b9051898203601f190160608b0152611730565b9551151560808801525160a08701525160c08601525160e085015251166101008301520390f35b3461019d57602036600319011261019d576004356001600160401b03811161019d573660238201121561019d578060040135906001600160401b03821161019d5760248101906024369160e0850201011161019d57600582106107c157335f5260046020526104fd60ff60405f2054161561186d565b5f905f5b83811061059d5750506064810290808204606414901517156105895760509161052991611901565b1061053057005b60405162461bcd60e51b815260206004820152602b60248201527f446f6573206e6f74206d656574203830252070726f6669746162696c6974792060448201526a1c995c5d5a5c995b595b9d60aa1b6064820152608490fd5b634e487b7160e01b5f52601160045260245ffd5b60606105aa828685611a51565b013560406105b9838786611a51565b01351015610783574260606105cf838786611a51565b01351161074a57335f52600360205260405f206105ed828685611a51565b908054600160401b8110156107365761060b91600182018155611754565b610723576106ad9160069061069a9060c0906001600160a01b0361062e82611a61565b86546001600160a01b031916911617855561064b60208201611a61565b6001860180546001600160a01b0319166001600160a01b0390921691909117905560408101356002860155606081013560038601556080810135600486015560a0810135600586015501611a75565b91019060ff801983541691151516179055565b6106c360c06106bd838786611a51565b01611a75565b61070f575b806106db60c06106bd6001948887611a51565b60405190151581527f0eaafde5ebec39b0111c5c7d6d1fcecac398382ff423cbaaf8ea499d21066d5a60203392a201610501565b9161071b6001916118f3565b9290506106c8565b634e487b7160e01b5f525f60045260245ffd5b634e487b7160e01b5f52604160045260245ffd5b60405162461bcd60e51b815260206004820152601160248201527046757475726520636c6f73652074696d6560781b6044820152606490fd5b60405162461bcd60e51b8152602060048201526016602482015275496e76616c696420706f736974696f6e2074696d657360501b6044820152606490fd5b60405162461bcd60e51b815260206004820152601d60248201527f496e73756666696369656e7420706f736974696f6e20686973746f72790000006044820152606490fd5b3461019d575f36600319011261019d5760206040516107d08152f35b3461019d57602036600319011261019d576001600160a01b03610843611591565b165f526006602052602060ff60405f2054166040519015158152f35b3461019d575f36600319011261019d575f546040516001600160a01b039091168152602090f35b3461019d57602036600319011261019d5761089f611591565b6108a7611a82565b6001600160a01b031680156108f357805f52600660205260405f20600160ff198254161790557f8a27c0070669c9f3e29362f9995acce0b920c672f3239bc925a45b5a92a851ca5f80a2005b60405162461bcd60e51b815260206004820152600f60248201526e496e76616c6964206164647265737360881b6044820152606490fd5b3461019d57602036600319011261019d57602061094d610948611591565b61191f565b604051908152f35b3461019d57602036600319011261019d5761096e611591565b610976611a82565b6001600160a01b03165f818152600460205260409020546109999060ff1661176d565b805f526002602052600360405f2001600160ff198254161790557f6de5969ea600bf6dfd17c1b1dcd5ef7bea84f201675f4c8a8bbc6a888880f7c55f80a2005b3461019d57602036600319011261019d576001600160a01b036109fa611591565b165f90815260026020526040902080546001600160a01b0316610a1f60018301611690565b91610a2c60028201611690565b60ff600383015416916004810154600582015490610a7e61ffff600760068601549501541694610a70604051998a998a5261010060208b01526101008a0190611730565b9088820360408a0152611730565b9415156060870152608086015260a085015260c084015260e08301520390f35b3461019d575f36600319011261019d57610ab6611a82565b5f80546001600160a01b0319811682556001600160a01b03167f8be0079c531659141344cd1fd0a4f28419497f9722a3daafe3b4186f6b6457e08280a3005b3461019d57602036600319011261019d57610b0e611591565b610b16611a82565b6001600160a01b03165f818152600660205260408120805460ff191690557f50ae3647b181b6195683f16a0c98a3cd7ddc63732465548bc2e4cc18d44c629a9080a2005b3461019d57602036600319011261019d57610b73611591565b610b7b611a82565b6001600160a01b03165f81815260046020526040902054610b9e9060ff1661176d565b805f526002602052600360405f200160ff1981541690557f26d054e0e8857287b16c4219214d225a5fda1924b52253039bff4b7b26d830d05f80a2005b3461019d57606036600319011261019d576004356001600160401b03811161019d57610c0b9036906004016115a7565b906024356001600160401b03811161019d57610c2b9036906004016115a7565b6044939193359361ffff851680950361019d57600260015414611024576002600155335f526004602052610c6660ff60405f2054161561186d565b335f526003602052600560405f205410610fd057610c858315156117b9565b6107d08511610f9c57610cbb60405191610c9e83611653565b338352610cac3686886118ae565b936020840194855236916118ae565b6040820190815260608201600181526080830142815260a08401915f835260c08501935f855260e08601968a8852335f52600260205260405f209660018060a01b039060018060a01b03905116166bffffffffffffffffffffffff60a01b8854161787556001870190518051906001600160401b03821161073657610d4a82610d448554611600565b856117fe565b602090601f8311600114610f3957610d7992915f9183610f2e575b50508160011b915f199060031b1c19161790565b90555b51805160028701916001600160401b03821161073657610da082610d448554611600565b602090601f8311600114610ebd5792610ddd83610df89461ffff9b99979460079b99975f92610eb25750508160011b915f199060031b1c19161790565b90555b511515600386019060ff801983541691151516179055565b5160048401555160058301555160068201550191511661ffff19825416179055335f52600460205260405f20600160ff19825416179055600554600160401b811015610736577fdbd939f05a8bb6d12c02e60cc29d73fffd1263d3c03d1536f6dad0775c9209db92610e73826001610ea094016005556115d4565b81546001600160a01b0360039290921b91821b19163390911b17905560408051818152939084019161184d565b9260208201528033930390a260018055005b015190505f80610d65565b90601f19831691845f52815f20925f5b818110610f1657509361ffff9a98969360079a98969360019383610df89810610efe575b505050811b019055610de0565b01515f1960f88460031b161c191690558f8080610ef1565b92936020600181928786015181550195019301610ecd565b015190508e80610d65565b90601f19831691845f52815f20925f5b818110610f845750908460019594939210610f6c575b505050811b019055610d7c565b01515f1960f88460031b161c191690558d8080610f5f565b92936020600181928786015181550195019301610f49565b60405162461bcd60e51b815260206004820152600c60248201526b08ccaca40e8dede40d0d2ced60a31b6044820152606490fd5b60405162461bcd60e51b815260206004820152602660248201527f4d757374207375626d697420686973746f726963616c20706f736974696f6e7360448201526508199a5c9cdd60d21b6064820152608490fd5b633ee5aeb560e01b5f5260045ffd5b3461019d57602036600319011261019d5760043560055481101561019d5761105c6020916115d4565b905460405160039290921b1c6001600160a01b03168152f35b3461019d57606036600319011261019d5761108e611591565b335f52600660205260ff60405f205416156110e6576001600160a01b03165f818152600460205260409020546110c69060ff1661176d565b5f9081526002602052604090206024356005820155604435600690910155005b606460405162461bcd60e51b815260206004820152602060248201527f4e6f7420617574686f72697a656420746f20757064617465206d6574726963736044820152fd5b3461019d57604036600319011261019d576004356001600160401b03811161019d5761115a9036906004016115a7565b906024356001600160401b03811161019d5761117a9036906004016115a7565b929092335f52600460205261119560ff60405f20541661176d565b6111a08215156117b9565b335f526002602052600160405f20016001600160401b038311610736576111d1836111cb8354611600565b836117fe565b5f83601f811160011461134d57806111fd925f91611342575b508160011b915f199060031b1c19161790565b90555b335f526002602052600260405f20016001600160401b0382116107365761122b826111cb8354611600565b5f601f83116001146112b857916112a89161127e82807f5a5248d054573022847923c7aff5393f051da7c24370d3da722cef7afadaa9809897965f916112ad57508160011b915f199060031b1c19161790565b90555b61129860405194859460408652604086019161184d565b908382036020850152339661184d565b0390a2005b90508901358a6111ea565b601f19831690825f5260205f20915f5b81811061132a5750916112a89391857f5a5248d054573022847923c7aff5393f051da7c24370d3da722cef7afadaa9809897969410611311575b5050600182811b019055611281565b8801355f19600385901b60f8161c191690558780611302565b9192602060018192868c0135815501940192016112c8565b9050860135886111ea565b50601f19841690825f528460205f20925f5b81811061139557501061137c575b5050600183811b019055611200565b8501355f19600386901b60f8161c19169055858061136d565b8884013585556001909401936020938401938893500161135f565b3461019d57602036600319011261019d576001600160a01b036113d1611591565b165f52600360205260405f208054906001600160401b038211610736576040519161140260208260051b018461166f565b8083526020830180925f5260205f205f915b8383106114ae578486604051918291602083019060208452518091526040830191905f5b818110611446575050500390f35b91935091602060e060019260c08751858060a01b038151168352858060a01b0385820151168584015260408101516040840152606081015160608401526080810151608084015260a081015160a08401520151151560c0820152019401910191849392611438565b600760206001926040516114c181611638565b848060a01b038654168152848060a01b03858701541683820152600286015460408201526003860154606082015260048601546080820152600586015460a082015260ff600687015416151560c0820152815201920192019190611414565b3461019d57602036600319011261019d576001600160a01b03611541611591565b165f526004602052602060ff60405f2054166040519015158152f35b3461019d575f36600319011261019d57602060405160058152f35b3461019d575f36600319011261019d5780605060209252f35b600435906001600160a01b038216820361019d57565b9181601f8401121561019d578235916001600160401b03831161019d576020838186019501011161019d57565b6005548110156115ec5760055f5260205f2001905f90565b634e487b7160e01b5f52603260045260245ffd5b90600182811c9216801561162e575b602083101461161a57565b634e487b7160e01b5f52602260045260245ffd5b91607f169161160f565b60e081019081106001600160401b0382111761073657604052565b61010081019081106001600160401b0382111761073657604052565b90601f801991011681019081106001600160401b0382111761073657604052565b9060405191825f8254926116a384611600565b808452936001811690811561170e57506001146116ca575b506116c89250038361166f565b565b90505f9291925260205f20905f915b8183106116f25750509060206116c8928201015f6116bb565b60209193508060019154838589010152019101909184926116d9565b9050602092506116c894915060ff191682840152151560051b8201015f6116bb565b805180835260209291819084018484015e5f828201840152601f01601f1916010190565b80548210156115ec575f52600760205f20910201905f90565b1561177457565b60405162461bcd60e51b815260206004820152601760248201527f4e6f7420612072656769737465726564206c65616465720000000000000000006044820152606490fd5b156117c057565b60405162461bcd60e51b815260206004820152601660248201527514dd1c985d1959de481b985b59481c995c5d5a5c995960521b6044820152606490fd5b601f821161180b57505050565b5f5260205f20906020601f840160051c83019310611843575b601f0160051c01905b818110611838575050565b5f815560010161182d565b9091508190611824565b908060209392818452848401375f828201840152601f01601f1916010190565b1561187457565b60405162461bcd60e51b8152602060048201526012602482015271105b1c9958591e481c9959da5cdd195c995960721b6044820152606490fd5b9291926001600160401b03821161073657604051916118d7601f8201601f19166020018461166f565b82948184528183011161019d578281602093845f960137010152565b5f1981146105895760010190565b811561190b570490565b634e487b7160e01b5f52601260045260245ffd5b60018060a01b03165f52600360205260405f209081546001600160401b038111610736576040519261195760208360051b018561166f565b81845260208401905f5260205f205f915b8383106119df57505050508151156119da575f805b83518110156119b55760c060208260051b8601015101516119a1575b60010161197d565b906119ad6001916118f3565b919050611999565b50919091606481029080820460641490151715610589576119d7915190611901565b90565b5f9150565b600760206001926040516119f281611638565b848060a01b038654168152848060a01b03858701541683820152600286015460408201526003860154606082015260048601546080820152600586015460a082015260ff600687015416151560c0820152815201920192019190611968565b91908110156115ec5760e0020190565b356001600160a01b038116810361019d5790565b35801515810361019d5790565b5f546001600160a01b03163303611a9557565b63118cdaa760e01b5f523360045260245ffdfea26469706673582212202842500a3242dbaf1b5adb44eeb7182be656d1db706519390055063a8127258164736f6c634300081a0033","linkReferences":{}},"methodIdentifiers":{"MAX_PERFORMANCE_FEE()":"bdca9165","MIN_HISTORICAL_POSITIONS()":"03c16c4f","MIN_PROFITABILITY_PERCENT()":"00692dd3","addAuthorizedUpdater(address)":"8c9b9fdc","allLeaders(uint256)":"3a16460d","authorizedUpdaters(address)":"8ff29cfe","calculateProfitability(address)":"8919f3b4","deactivateLeader(address)":"55a78e6e","getAllLeaders()":"e86cc28d","getLeader(address)":"e74d6d1b","getLeaderHistory(address)":"1cb23482","isRegisteredLeader(address)":"1bbe8cfb","leaderHistory(address,uint256)":"ece21b84","leaders(address)":"749ea598","owner()":"8da5cb5b","reactivateLeader(address)":"7a54d7bf","registerAsLeader(string,string,uint16)":"3dc0f16f","removeAuthorizedUpdater(address)":"603cda09","renounceOwnership()":"715018a6","submitHistoricalPositions((address,address,uint256,uint256,uint256,int256,bool)[])":"c319e864","transferOwnership(address)":"f2fde38b","updateLeaderMetrics(address,uint256,uint256)":"2fcfa259","updateStrategy(string,string)":"2dc76898"},"id":46}